:020000040800F2
:10000000D0040020D50000086D130008311200084C
:1000100000000000000000000000000000000000E0
:10002000000000000000000000000000B7130008FE
:100030000000000000000000B5130008B91300081C
:10004000E7000008E7000008E7000008E7000008F4
:10005000E7000008E7000008E7000008E7000008E4
:10006000E7000008E7000008E7000008E7000008D4
:10007000E7000008E7000008E7000008E7000008C4
:10008000E7000008E7000008E700000800000000A3
:10009000E7000008E700000889140008E7000008EE
:1000A000E7000008E7000008E7000008E700000894
:1000B000E7000008E7000008E7000008E700000884
:1000C0000348854600F08EF800480047411A0008B2
:1000D000D00400200448804704480047FEE7FEE7BC
:1000E000FEE7FEE7FEE7FEE735140008C100000862
:1000F00030B50B46014600202022012409E00D46C0
:10010000D5409D4205D31D469540491B2546954047
:1001100040191546521E002DF1DC30BDF0B51FB45C
:100120000646002082B005464024019100901BE065
:10013000019922460F46304600F042F8049A059B8A
:10014000801A994110D310461946224600F028F82B
:10015000361A8F410197224601200021009F00F0AE
:100160001FF838184D4100902046641E0028DFDC3F
:10017000019B00982946324607B0F0BDD2B201E09B
:100180000270401C491EFBD270470022F6E710B5F2
:1001900013460A4604461946FFF7F0FF204610BDF5
:1001A00010B5202A04DB0146203A9140002010BD02
:1001B000914020239C1A0346E3401943904010BD10
:1001C00010B5202A04DB0846203AD040002110BD9B
:1001D0000B46D340D0402024A21A91400843194630
:1001E00010BD0000064C0125064E05E02046E368E0
:1001F00007C82B4398471034B442F7D3FFF764FF86
:10020000841A0008A41A0008FCB500230124A7E002
:1002100027462A469F403A406FD04D68012D05D0B1
:10022000022D03D0112D01D0122D16D18568032681
:10023000AC465D00AE46AE406546B543AC46CE68C2
:100240007546AE4065462E43866046680D79BE43CE
:10025000ED06ED0F9D4035434560C6685F00032500
:10026000BD40AE46AE4335468E68BE402E43C660A6
:100270004E68022E01D0122E14D1DE08B6003618B8
:100280000196366A5D07B446EE0E0F25B54000961E
:100290006646AE43B4460D69009EB54066462E43A1
:1002A000019D2E6206687546AE430D79AD07AD0F10
:1002B000BD40354305604D68ED0050D52B4D6E6B4C
:1002C00026436E639E082A4DB6007519AC46AD688C
:1002D0009E07360F0F27B740BD4305273F07B8429B
:1002E00001D100271AE0234FB84201D1012715E0C0
:1002F000214FB84202D1022710E030E01F4FB84230
:1003000001D103270AE01E4FB84201D1042705E0BE
:100310001C4FB84201D1052700E00627B7402F4304
:100320006546AF60184E35684F689543FF0300D5AA
:100330001543356075684F689543BF0300D5154375
:100340007560B5684F689543FF0200D51543B560E9
:10035000F5684F689543BF0200D51543F5605B1CF7
:100360000A681546DA4000D052E7FCBD0010024092
:10037000000001400004005000080050000C005034
:1003800000100050001C0050000401404269134658
:100390000B401B0491430B4383617047002A01D03B
:1003A0008161704781627047014880687047000032
:1003B0000000002002488168027889188160704737
:1003C0000000002010B508480024016840221143B5
:1003D0000160204600F00AF8002801D0012401E065
:1003E00000F026F8204610BD0020024070B50446FB
:1003F0000D4D7D202978C000FFF77AFE01460B489D
:100400000068FFF775FE00F061FC002809D1042C9C
:1004100007D200222146401E00F020F800206C6028
:1004200070BD012070BD0000000000200C00002005
:100430000448416B012211434163816B0204114363
:100440008163704700100240C106C90E0120884038
:10045000014908607047000000E100E010B500F0BD
:1004600087FF10BDF8B504460068664D810601D4CB
:1004700000057DD5634E0027403EB06BC00004D41C
:10048000B06B31040843B06301275F480168C905B8
:1004900011D40168821511430160FFF785FF0090B8
:1004A00005E0FFF781FF0099401A642844D85648B8
:1004B0000068C005F5D53168032000056268014079
:1004C0001040884205D10323A0681B0518408842CC
:1004D00008D09003800F032804D13068800301D531
:1004E0000120F8BD286903210904084029D00A40E9
:1004F000824202D02278920606D4A2680A40824242
:100500001FD0208800051CD528692A69884301214D
:10051000C9040A432A612A698A432A612861C005FD
:100520000FD5FFF741FF009008E0FFF73DFF00996E
:10053000411A3648814201D90320F8BD2869800557
:10054000F3D561688803800F032805D13268000560
:10055000824301400A433260286903226168120421
:10056000114008432861012F05D1B06B390700E025
:1005700001E08843B0632078C00705D0E868E168EF
:10058000800880000843E8602078800705D5E86887
:100590000C21884321690843E8602078400706D58C
:1005A000E86803218902884361690843E86020788C
:1005B000000706D5E868032109038843A1690843B9
:1005C000E8602088C00506D5E8680321090488434F
:1005D000E1690843E8602078400606D5E868012113
:1005E00089068843616A0843E8602078000606D5DA
:1005F000E868032189048843216A0843E8600020F1
:10060000F8BD000040100240007000408813000058
:10061000F8B50E4605007DD053480068C007C00FEE
:10062000B0420AD25048016849084900314301608C
:100630000068C007C00FB04271D128784B4C8007CA
:1006400005D5E068F0218843A9680843E060287870
:10065000C00752D06868022817D0032818D0216834
:10066000012818D08905002959DAE168890889002C
:100670000143E160FFF798FE69680746022912D03E
:1006800003291CD0012926D033E021688903EAE739
:1006900021688901E7E74907E5E7FFF785FEC11B08
:1006A0003348814223D8E0680007800F0228F4D144
:1006B00023E0FFF779FEC11B2D48814217D8E0687F
:1006C0000007800F0328F4D117E0FFF76DFEC11B70
:1006D000274881420BD8E0680007800F0128F4D139
:1006E0000BE0FFF761FEC11B2148814201D90320C5
:1006F000F8BDE0680007800FF3D11B480168C90707
:10070000C90FB1420DD90168490849003143016060
:10071000006800E003E0C007C00FB04201D0012034
:10072000F8BD2878400706D5E0680721090288430C
:10073000E9680843E0602878000707D5E0680721EA
:10074000C90288432969C9000843E06000F036F80F
:10075000E168084A0906090F515CC840064908606B
:100760000020FFF743FEF8BD0020024000100240C9
:1007700088130000601A00080C0000200448054996
:100780000068C968044A4905490F515CC840704770
:100790000C00002000100240791A000804480549A6
:1007A0000068C968044A8904490F515CC840704711
:1007B0000C00002000100240791A000810B5184AF9
:1007C000D1680C20084004280BD0082810D00C2831
:1007D00010D050680004410F491C0120C00388401C
:1007E00010BD1068C00601D50E4810BD0E4810BDE2
:1007F0000E4810BD88020E4B000F185C0902890FCD
:10080000D368491CDB0301D5084A05E01268D2060B
:1008100001D5044A00E0044A5043FFF769FC10BDCB
:100820000010024000093D000024F40000127A008C
:10083000701A0008FEB505007ED0F94CE7680C2060
:10084000E66807400120000406402878C00747D02A
:10085000082F05D00C2F0AD101200004864206D1B2
:10086000206880033CD568680028E5D038E0012086
:1008700069680004814203D121680143216011E0CD
:10088000052301221B0492049942216802D11143DD
:100890002160F1E7814321602168014000912068D7
:1008A00090432060686800280DD0FFF77DFD009020
:1008B00005E0FFF779FD0099401A64287ED820688A
:1008C0008003F6D50CE0FFF76FFD009005E0FFF721
:1008D0006BFD0099401A6428F0D820688003F6D494
:1008E000287880075CD5E868810604D52268202135
:1008F0000A43226088430923042F0DD00C2F01D115
:10090000002E09D000283BD0216899430143216083
:10091000FFF74AFD064627E02168490701D5002870
:100920008AD061681F22120291432A691202114380
:1009300061602168994300E0C3E101432160FFF752
:100940003DFFE16809060A0FB649895CC840B6490F
:1009500008600020FFF74AFD002873D120E0FFF770
:1009600023FD801B0228A9D820684007F7D56068BE
:100970001F210902884329690902084360600FE0CA
:100980002068400840002060FFF70EFD064604E0A6
:10099000FFF70AFD801B022890D820684007F7D493
:1009A0002878C00660D5002F0DD0E86900284AD00D
:1009B0002068FF2101310843206000E0F8E0FFF7E4
:1009C000F3FC06462CE02068800502D5E869002883
:1009D000A6D06068072149038843696A08436060BC
:1009E0006068298C0002000A090608436060686A92
:1009F000410B491C0120C0038840E16809060A0F29
:100A00008849895CC840884908600020FFF7EEFCEF
:100A1000002817D128E0FFF7C7FC801B0228A2D8C6
:100A200020688005F7D56068072149038843696A13
:100A3000084360606068298C0002000A09060843C8
:100A4000606011E023E12168FF20013081432160D3
:100A5000FFF7AAFC064604E0FFF7A6FC801B02286D
:100A60009AD820688005F7D42878704E000724D5DE
:100A700068690028306910D0012108433061FFF710
:100A800093FC009005E0FFF78FFC0099401A0228C4
:100A9000C5D830698007F6D50FE0400840003061C6
:100AA000FFF782FC009005E0FFF77EFC0099401AFA
:100AB00002287DD830698007F6D42878400764D5AD
:100AC00000200290A06BC00006D4A06B0121090792
:100AD0000843A0630120029055480168C90511D45C
:100AE0000168821511430160FFF75EFC009005E08C
:100AF000FFF75AFC0099401A642859D84C480068FE
:100B0000C005F5D5FF20AA680130824203D13169C2
:100B10000143316111E001218902002A07D0052338
:100B20001B029A4203D132690A433261EFE732690C
:100B300082433261306988433061A86800280ED052
:100B4000FFF732FC009006E0FFF72EFC0099411AF7
:100B5000384881422CD830698005F5D50DE0FFF783
:100B600023FC009006E0FFF71FFC0099411A314872
:100B700081421DD830698005F5D40298012804D13E
:100B8000A06B012109078843A0632878800630D52F
:100B90002948A9694314002918D0A26801210A43F1
:100BA000A260626B0A436263016A1943016200E05A
:100BB0006CE0FFF7F9FB064604E0FFF7F5FB801B4E
:100BC000022863D8A0688007F7D512E0A168490819
:100BD0004900A160016A99430162FFF7E5FB0646FF
:100BE00004E0FFF7E1FB801B02284FD8A0688007D4
:100BF000F7D4A86A002866D00C2F4DD001263606FF
:100C00000228206805D0B0432060FFF7CDFB0546E1
:100C10003EE0B0432060FFF7C7FB074613E000004B
:100C200000100240601A00080C0000204010024032
:100C3000007000408813000000000140FFF7B4FB83
:100C4000C01B022822D820688001F7D4296BE86AEB
:100C5000E2680843696BFD231B049A431143084370
:100C6000E060206830432060FFF79EFB054604E00B
:100C7000FFF79AFB401B022808D820688001F7D5AF
:100C800021E0FFF791FB401B022801D90320FEBDA4
:100C900020688001F5D416E00128F8D0E068012131
:100CA0000904EA6A014091420BD10F2189042A6BA1
:100CB0000140914205D1032189050840696B8842B2
:100CC00001D00120FEBD0020FEBD0000094910B585
:100CD000401E884201D9012010BD074C60610321EC
:100CE000081F00F045FB0020A061072020610020C4
:100CF00010BD0000FFFFFF0000E000E0F0B502467D
:100D00002032137E012B15D001271776022353764C
:100D100005686C68AB687026B4430E684968264362
:100D20008024A34319436E600068816057760020D9
:100D30001076F0BD0220F0BD70B5040005D0254648
:100D40002035687E002802D006E0012070BD00201A
:100D50002876204600F00AF802206876211D2068D7
:100D600000F09AFB01206876002070BD10B5006885
:100D7000084988420CD10848416B20221143416345
:100D8000002211461620FFF769FB1620FFF75CFBD7
:100D900010BD000000140140001002400268D3683A
:100DA00001210B43D360006882685207520F062A64
:100DB00002D002680A43026000207047F8B5054679
:100DC00004462035287E012817D001262E760220E1
:100DD0006876226890687727FF23B8431B02984300
:100DE00090600A68502A32D00EDC202A4CD006DCF3
:100DF000002A49D0102A3BD146E00220F8BD302A13
:100E000042D0402A34D137E0602A28D0702A06D058
:100E100001200003121A2BD0101A29D10AE0CB6846
:100E20004A688968206800F06BFB2168886838434D
:100E300088601DE0CB684A688968206800F060FB24
:100E400020688168012292031143816010E0CA6822
:100E50004968206800F0CEFB5021206806E0CA688F
:100E60004968206800F0D7FB6021206800F053FB40
:100E70006E7600202876F8BDCA684968206800F0C0
:100E8000B9FB40212068F1E711462068EEE7704782
:100E900070B50446006801690025C9438907002927
:100EA00015DBC168C943890711D4E91E016101201E
:100EB0002076206880698007204602D0FFF7E7FF90
:100EC00004E000F0A1F8204600F045F925762068FE
:100ED0000169C943490717D4C168C943490713D4F5
:100EE0000421C943016102202076206880698005C1
:100EF000800F204602D0FFF7CAFF04E000F084F81C
:100F0000204600F028F9257620680169C9430907C1
:100F100016D4C168C943090712D40821C943016125
:100F2000042020762068C0698007204602D0FFF7A1
:100F3000AEFF04E000F068F8204600F00CF92576DA
:100F400020680169C943C90617D4C168C943C906E5
:100F500013D41021C9430161082020762068C0699C
:100F60008005800F204602D0FFF791FF04E000F0DB
:100F70004BF8204600F0EFF8257620680169C94358
:100F8000C90708D1C168C943C90704D1891E0161D5
:100F9000204600F0E1F820680169C943490609D4F8
:100FA000C168C943490605D44021C94301612046AF
:100FB00000F0DAF870BD000010B586B004461421C8
:100FC0006846FFF7E2F80D492068884213D10C48C3
:100FD000C26A04210A43C262C06A084005908020A8
:100FE0000090022001900020029003900490694636
:100FF0000448FFF709F906B010BD000000140140D5
:101000000010024000080050704770B50E46040002
:1010100005D025462035687E002802D006E0012054
:1010200070BD00202876204600F013F80220687674
:10103000211D206800F030FA2068016808229143E1
:10104000016020680168314301600120687600205A
:1010500070BD7047F8B5064604462036307E0D4612
:1010600001280DD001203076022070760427002A56
:1010700008D0042A16D0082A29D00C2A4BD136E0F1
:101080000220F8BD206800F04EFA2068816908222D
:101090001143816120688169B94381612068816958
:1010A000EA6811E0206800F056FA206881690122A0
:1010B000D20211438161206881695210914381619C
:1010C00020688169EA6812021143816123E0206887
:1010D00000F05AFA2068C16908221143C1612068F2
:1010E000C169B943C1612068C169EA6811E020683B
:1010F00000F065FA2068C1690122D2021143C16182
:101100002068C16952109143C1612068C169EA68D1
:1011100012021143C1610120707600203076F8BDC3
:1011200070B5040005D025462035687E002802D021
:1011300006E0012070BD00202876204600F00AF865
:1011400002206876211D206800F0A6F9012068764B
:10115000002070BD7047704710B502210148FFF7AD
:1011600015F910BD00080050704710B5040003D0F9
:10117000606F002802D007E0012010BD0021702020
:101180000155204600F026F8242060672068016899
:10119000490849000160204600F0E6FA0128ECD039
:1011A000606A002802D0204600F048FA20684168B2
:1011B0000922D20291434160206881682A2291432A
:1011C000816020680168012211430160204600F01F
:1011D0009BFA10BD10B586B0044614216846FEF790
:1011E000D4FF1149206888421BD11048816B01222D
:1011F000520411438163C16A01221143C162C06A72
:101200006946104005900C200090022001900020BB
:101210000290032003900420049005200007FEF7AD
:10122000F3FF06B010BD0000004400400010024073
:10123000FEE7000070B586B014216846FEF7A5FFF2
:101240001848C26A04210A43C262C26A0A4005926F
:10125000C26A80210A43C262C26A0A400592C16A18
:1012600001252943C162C06A05262840360705903A
:10127000002220213046FFF791F8680300900A48C9
:1012800000240190694602940848FEF7BDFF202023
:10129000009002946946019503943046FEF7B4FF2E
:1012A00006B070BD00100240000021100008005080
:1012B00010B58AB000240494059406940794089409
:1012C0001D4809940094019402941A490394016002
:1012D0007D21C900846041604B2149010461C160E6
:1012E00080214161FFF728FD01200003049004A93B
:1012F0001148FFF763FD1048FFF712FF08210E4861
:10130000FFF783FE089408A90B480994FFF7F6FC41
:10131000602000904B200001019002940422694655
:1013200003940548FFF796FE0348FFF745FE0AB011
:1013300010BD0000001401401000002010B50A4844
:1013400008490160E1214902416000218160C160DA
:1013500001618161C1610C22016242614162FFF75A
:1013600004FF10BD004400404C0000207047000006
:101370008307FF22DB0E9A408907090E9940002857
:101380000BDA0007000F0838830808489B001B1879
:10139000D86990430843D8617047830804489B008C
:1013A0001B181868904308431860704700ED00E070
:1013B00000E400E07047704710B5FEF7FBFF10BD7A
:1013C00030B59DB038216846FEF7DFFE142118A81D
:1013D000FEF7DBFE28210EA8FEF7D7FE14480168B1
:1013E0000322D2029143C2148918016001200390A4
:1013F0001020049002250024800400950D900B9489
:101400000A950C946846FFF715FA0F2018900320F0
:1014100019901A941B9401211C9418A8FFF7F8F84E
:101420000EA80E951294FFF71DF81DB030BD0000F8
:101430000070004010480168821511430160C168C6
:101440000E4A1140C16001680D4A11400160816877
:1014500049084900816001680122920491430160BA
:10146000C168FD2212049143C16000210161054958
:10147000C003886070470000001002400C40FF88E5
:10148000F6FFF6FE00ED00E010B50248FFF700FDA4
:1014900010BD000010000020F0B502680124A40770
:1014A000144D154E154FA04205D0A84203D0B042AE
:1014B00001D0B84204D11346702293434A681A43BC
:1014C000A04205D0A84203D0B04201D0B84204D116
:1014D00003231B029A43CB681A4380239A430B6968
:1014E0001A4302608A68C26209688162012141610F
:1014F000F0BD00000004004000080140001401405D
:1015000030B58468FF252D021B021343AC430B4307
:101510002343836030BD826870239A430A430721C6
:101520000A438260704730B5026A52085200026274
:10153000026A456883697024A3439C080B68A40071
:1015400023430224A2438C684560144383614968A5
:101550004163046230BD30B5026A10239A430262CF
:10156000036A4568826973242402A2430C6824023A
:101570001443202293438A68456012011A43846110
:1015800049688163026230BD30B5026AFF230133CE
:101590009A430262026A4568C3697024A3439C08A7
:1015A0000B68A400234301246402A2438C684560B5
:1015B00024021443C3614968C163046230BD30B57D
:1015C000026A01231B039A430262036A4568C269E7
:1015D00073242402A2430C68240214430122520300
:1015E00093438A68456012031A43C46149680164E1
:1015F000026230BD30B5036A046A640864000462A4
:101600008469F025AC43120122430A24A3430B430F
:101610008261036230BD30B5036A1024A3430362C4
:101620008469036A0F252D031203AC432243A024CF
:10163000A343090119438261016230BD10B5818C59
:10164000C90707D001684A6801235B049A43836A8B
:101650001A434A60818C890707D501684A680123CB
:101660001B049A43C36A1A434A60818C490707D511
:1016700001684A6801239B049A43036B1A434A603A
:10168000818C090707D501684A680123DB039A4367
:10169000436B1A434A60818CC90607D5026891687A
:1016A00001231B039943836B19439160818C890645
:1016B00007D501688A6801235B039A43C36B1A4309
:1016C0008A60818C490612D503685A680121090590
:1016D000046C8A4322435A60026C8A4207D1026832
:1016E000516803235B059943436C19435160818C16
:1016F000090607D501684A680123DB04806C9A4318
:1017000002434A6010BD0000F8B500260446C667D3
:10171000FEF74AFE054620680068124F000709D50B
:1017200001212B46002249052046009700F03AF996
:1017300000280DD12068006840070BD501212B46F9
:10174000002289052046009700F02CF9002801D0DE
:101750000320F8BD20206067A06760342674002055
:10176000F8BD0000FFFFFF01F8B504462669A26836
:10177000E76932436669102000253E4323683243FF
:101780007B491E687B4F3E4016431E6022685368AB
:1017900003263603B343E668334353602368A269E4
:1017A0008B4201D0266A32439E680B273F02BE431C
:1017B00016439E60704E2368704AB3420CD1D268C3
:1017C0009207920F06D0012A2ED0022A2AD0032A8D
:1017D0002DD12BE001202AE0694EB3420AD1D26814
:1017E0000C2632401CD0042A1ED0082A1AD00C2AFB
:1017F0001DD11BE0634EB34212D0634EB3420FD0F3
:101800008B4214D1D66803229202164008D00122DE
:101810009202B61A08D0B61A04D0B21A07D105E05F
:10182000002004E0022002E0042000E00820534AE7
:101830000126403A554FF6038B4230D1002806D09E
:10184000022807D004280CD0082819D116E0FEF78A
:1018500095FF08E01068C00601D5384605E04C4801
:1018600003E0FEF7ABFF002873D062685100511807
:10187000814205D81103814202D303E03046F4E7E8
:10188000012566E0010E0602500800233018594178
:10189000FEF744FC03210902411A3E4A55E0E16982
:1018A000B14232D1030000F0AEF809070A0D062557
:1018B0000606062B0600E3E7FEF760FF1CE0FEF7D6
:1018C0006DFF19E010686168C00602D54808324A09
:1018D00001E0324A48088018FEF70AFC80B201464F
:1018E0002F4A10399142CBD8511C01400007400FBC
:1018F00008432CE0FEF762FF616840004A08EAE70F
:101900006168012248081204E5E7030000F07BF853
:1019100009070A0D06260606062C0600B0E7FEF7A4
:101920002DFF1DE0FEF73AFF1AE010686168C0065F
:1019300002D54808C01902E015484A081018FEF7F9
:10194000D7FB80B20146164A1039914298D82168D7
:10195000C8600020206660662846F8BDFEF72EFFAE
:1019600061684A088018EAE7616848088019E6E774
:1019700000480040F369FFEF00380140401002408A
:1019800000440040004C00400050004000093D0071
:101990000024F400FFFC0F0000127A000048E80168
:1019A000EFFF0000FFB581B017460E4604460A9DC2
:1019B00009E0681C07D0FEF7F7FC0499401AA8421A
:1019C0000CD8002D0AD02068C1693046884318D051
:1019D0000020B842EDD0002005B0F0BD20680168BD
:1019E000FF22A132914301602068816849084900C3
:1019F000816020206067A06700206034207403208D
:101A0000EAE70120E5E730B47446641E2578641CDB
:101A1000AB4200D21D46635D5B00E31830BC184743
:101A200002E008C8121F08C1002AFAD170477047A7
:101A3000002001E001C1121F002AFBD17047000005
:101A4000FEF7C0FCFFF7BCFCFFF7F4FBFFF730FC30
:101A5000FFF774FC0148FFF7A1F9FEE71000002032
:101A6000000000000000000001020304060708094E
:101A7000030406080C1018203000000000010203C7
:101A800004000000A41A000800000020100000005C
:101A9000201A0008B41A000810000020C00400003A
:101AA000301A0008010000000400000000000000DF
:041AB0000000200012
:04000005080000C12E
:00000001FF
