:020000040800F2
:1000000000500020992100081D2100081F21000830
:1000100000000000000000000000000000000000E0
:100020000000000000000000000000002121000886
:100030000000000000000000232100082521000826
:10004000E9210008E9210008E9210008E921000868
:10005000E9210008E9210008E9210008E921000858
:10006000E92100082D210008E9210008E921000804
:10007000E9210008E9210008E9210008E921000838
:10008000E9210008E9210008E9210008000000003A
:10009000E9210008E9210008E9210008E921000818
:1000A000E9210008E9210008E9210008E921000808
:1000B000E9210008E9210008E9210008E9210008F8
:1000C00010B5064C2378002B07D1054B002B02D02E
:1000D000044800E000BF0123237010BD1000002081
:1000E0000000000044220008044B10B5002B03D090
:1000F0000349044800E000BF10BDC04600000000F6
:10010000140000204422000802B471464908490046
:10011000095C49008E4402BC7047C04603B4714676
:10012000490840004900095E49008E4403BC7047FD
:10013000002243088B4274D303098B425FD3030A26
:100140008B4244D3030B8B4228D3030C8B420DD339
:10015000FF22090212BA030C8B4202D312120902C7
:1001600065D0030B8B4219D300E0090AC30B8B4205
:1001700001D3CB03C01A5241830B8B4201D38B03B3
:10018000C01A5241430B8B4201D34B03C01A524158
:10019000030B8B4201D30B03C01A5241C30A8B429B
:1001A00001D3CB02C01A5241830A8B4201D38B0286
:1001B000C01A5241430A8B4201D34B02C01A52412A
:1001C000030A8B4201D30B02C01A5241CDD2C3099C
:1001D0008B4201D3CB01C01A524183098B4201D318
:1001E0008B01C01A524143098B4201D34B01C01A03
:1001F000524103098B4201D30B01C01A5241C3087B
:100200008B4201D3CB00C01A524183088B4201D3E9
:100210008B00C01A524143088B4201D34B00C01AD5
:100220005241411A00D20146524110467047FFE741
:1002300001B5002000F006F802BDC0460029F7D045
:1002400076E770477047C046002B11D1002A0FD1C6
:10025000002900D1002802D00021C943081C07B49E
:10026000024802A14018029003BDC046D9FFFFFF1B
:1002700003B4684601B5029800F006F8019B9E465B
:1002800002B00CBC7047C046F0B557464E464546D6
:10029000DE46E0B5040083B00D00924699468B42DD
:1002A0002FD82CD04946504600F0AEF82900060061
:1002B000200000F0A9F8331A9846203B9B4600D551
:1002C00074E053465A4693401F00534642469340BB
:1002D0001E00AF4229D826D05B46A41BBD41002B8F
:1002E00000DA79E0002200230092019301235A46AC
:1002F00093400193012342469340009319E08242C8
:10030000D0D900220023009201930C9B002B01D036
:100310001C605D600098019903B03CBC9046994612
:10032000A246AB46F0BDA342D6D9002200230092DC
:1003300001934346002BE8D0FB0772081A43464658
:100340007B080EE0AB4201D1A2420CD8A41A9D4119
:10035000012024196D410021013E24184D41002E39
:1003600006D0AB42EED9013E24196D41002EF8D1E2
:100370005B460098019900196941002B22DB2B0094
:100380005A46D3402A004446E2401C005B46150012
:10039000002B2CDB26009E40330026004746BE4043
:1003A0003200801A994100900191AEE74246202325
:1003B0009B1A5246DA40414613004A468A401700CB
:1003C0001F4382E7424620239B1A2A0046469A4052
:1003D0002300F3401343D5E74246202300219B1A14
:1003E0000022009101920122DA40019282E7424606
:1003F000202326009B1ADE402F00B4469740664615
:100400003B003343C9E7C04610B5002903D100F0D3
:1004100007F8203002E0081C00F002F810BDC046CA
:100420001C2101231B04984201D3000C10391B0A24
:10043000984201D3000A08391B09984201D30009E8
:10044000043902A2105C40187047C046040302023F
:1004500001010101000000000000000070B505006E
:10046000FA200D4B80001978FFF762FE0B4B01005C
:100470001868FFF75DFE00F037FB04000120002C38
:1004800009D1032D07D802382200290000F0F2FA22
:100490002000034B1D6070BD000000200C000020F8
:1004A000040000204023084A10B5116800200B43C7
:1004B0001360FFF7D3FF041E03D101F0ABFD200052
:1004C00010BD0124FBE7C04600200240034A044B54
:1004D00011681B785B1813607047C046300000201D
:1004E00000000020014B18687047C0463000002013
:1004F00070B50400FFF7F6FF0500631C02D0044B43
:100500001B78E418FFF7EEFF401B8442FAD870BD59
:1005100000000020084B13B5040008491868FFF7D5
:1005200007FE44430194019B002B00D113BD019BA6
:10053000013B0193F7E7C0460C00002040420F004A
:100540000321036870B59A6804000A40012A0DD19E
:10055000196811420AD0002070BD10230120626D7D
:1005600013436365A36D0343A365F5E799680F4AD9
:100570001142F2D101259A6828002A439A60FFF7B8
:10058000C9FFFFF7AFFF060023681B682B42E2D1CB
:10059000FFF7A8FF801B0A28F6D91023626D0120FF
:1005A00013436365A36D1D43A565D5E71700008060
:1005B00070B504000120002C19D0636D002B06D10A
:1005C00022005032A3652000137001F031FD636DED
:1005D000DB0604D4042223689868104008D0102356
:1005E000626D01201343636500235034237070BD96
:1005F000626D5549114002220A43626503229968DF
:100600001140524A012902D11D680D4219D180269C
:100610006568F60569004908B14203D080210906E2
:100620008D4276D1196989008908196119690D43CC
:100630001D611825D968A943D960D968A5682943DF
:10064000D9601168424D29401160616B15684906F7
:1006500029431160802299685205114202D199689C
:100660000A439A60DA683B490A402169DA60DD682A
:10067000E268022900D10420266B611C32432A4320
:10068000A569C97FAD032A43E569ED032A434D03FC
:100690002A4325002C352D786D002A430243C220C1
:1006A000DA60626AFF30824204D0A56AD8682A43C1
:1006B0000243DA60A21CD27F012A06D1002934D17C
:1006C0008022D96852020A43DA60E16B1A69012973
:1006D00033D12148656C02401A61226C18692A43A3
:1006E000A56C2A4302431A611A6911431961072153
:1006F0005A6900208A435A615A69A16B0A435A61B8
:100700000322A065636D93431A00012313436365BD
:100710006DE71969114E8900890819611168314026
:10072000116011680D43156083E72021606D01435E
:100730006165A16D0A43A265C7E701210A42D6D0CF
:100740001A698A431A61D2E7FDFEFFFF08270140BC
:10075000FFFFFFFD1902FEFF03FCFFFFFFFFC3FFCA
:10076000036870B59B68040002205B071AD425005B
:1007700050352B78012B15D001232B70E369012B09
:1007800011D1636D0B4A00201A4080235B00134394
:100790001C2263652368A06528701A609968183A5E
:1007A0000A439A6070BD2000FFF7CAFE0028F9D105
:1007B000E7E7C046FEF0FFFFF8B5456904000E000C
:1007C000082D0DD003680120DB680C25034207D0FB
:1007D0002023626D50341343636000232370F8BDFF
:1007E000FFF780FE070023681A682A4224D080227F
:1007F000616D92000A436265C022D96812011142FC
:1008000013D1621CD27F002A0FD11A6812070CD5AF
:100810009A68520723D40C215A688A435A60626D41
:100820001349114001220A4362650020A2698242F5
:10083000D5D10C221A60D2E7721CD5D0002E08D177
:100840000423626D5034134363600023032023703C
:10085000C5E7FFF747FEC01B8642C4D2F0E720225F
:10086000616D0A4362650122A16D0A43A265DCE75E
:10087000FEFEFFFFF7B5036804009B680F000192BE
:1008800002205B0730D4260050363378012B2BD062
:1008900001233370E369012B27D1636D164A0025CC
:1008A0001A4080235B0013436365E06C134BA5651E
:1008B0003570C362124B21680363124B43631C23E0
:1008C0000B604A680C3B13434B600123CA68134317
:1008D000CB603A004031019B00F064F9042328000A
:1008E000226891680B439360FEBD2000FFF728FE4D
:1008F0000028F9D1D1E7C046FEF0FFFF110900083A
:10090000810900088D0900080368186C7047000011
:100910005022836A10B5596D11422BD1596DB132F5
:10092000FF320A43C0215A651A680901D06808429B
:1009300013D1591CC97F00290FD1116809070CD5A3
:10094000916849070DD40C205168814351605A6D5C
:100950000A49114001220A435A65180001F048FB78
:1009600010BD2022596D0A435A650122996D0A4330
:100970009A65F2E7DB6C5B6B9847F1E7FEFEFFFFE1
:1009800010B5806A01F02AFB10BD70474023806AD1
:1009900010B5426D134343650423826D1343836591
:1009A000FFF7F3FF10BD000070B50400503423784A
:1009B00006000D000220012B0BD03268013891682F
:1009C00020704B0706D52022716D0A437265002204
:1009D000227070BD802022496E682B68C0028E4252
:1009E00023D0966A5903490B31439162034208D0E0
:1009F00080231C4A1B0411680A200B431360FFF775
:100A000089FD2A68930305D580231649DB0308680E
:100A100003430B60D30305D58023124A5B0411689E
:100A20000B43136000202070D3E7916A5D036D0BC8
:100A3000A9439162034204D00A490B480A68024064
:100A40000A609A0304D5074908480A6802400A6008
:100A5000DB03E7D5034A064913680B40E1E7C046CC
:100A60000110000008270140FFFF7FFFFFFFBFFFCD
:100A7000FFFFFFFE70B58901002814DA0F23C0B212
:100A80000340083B114A9B089B009B18032210401F
:100A90009040FC321500114085408140DC69AC4338
:100AA0002143D96170BD032583082840A840FC3547
:100AB0002E00074A9B009B18C02286402940814097
:100AC00092009C58B44321439950EBE700ED00E0BD
:100AD00000E100E01F2318401E3B8340014A1360E1
:100AE0007047C04600E100E0094A431E01209342DE
:100AF0000DD8C021074A08485360036A09061B0243
:100B00001B0A0B43036200200723906013607047A9
:100B1000FFFFFF0010E000E000ED00E0F8B504008A
:100B20000120002C35D025681A4B1421E818FFF756
:100B3000FFFA194B800023640223A21D6064D3775F
:100B40002E68164BA1681E40E36827690B433B43A0
:100B500067693B43A7693B43E7693B43276A3B43DC
:100B600033432B608023DB0199420CD01C252840A5
:100B70000D3D85400A490B68AB430B6063680D6807
:100B800083402B430B6000200123E0630534D377BF
:100B9000E077F8BDF8FFFDBF000002400F80FFFFC7
:100BA000A8000240F7B5461DF57F0224012D2AD08A
:100BB0000125F577851DAC46ED7F0027EDB2012DAF
:100BC0002DD16646F4770468C76326681C37AE43A8
:100BD0002660066C0196466C3740BD40019E7560EC
:100BE000636083680568102B0FD1A260E160036B1E
:100BF000002B0DD00E232268134323600123002411
:100C00002A6813432B602000FEBDA160E260EEE77E
:100C1000042223689343236022680A23ECE7F777D2
:100C2000F1E7F8B51C220427466C016C32403E0007
:100C300096400D6803681C682E420DD03C420BD0D4
:100C40001A68920602D41A68BA431A60036B4E609F
:100C5000002B19D0984717E002273E0096402E42FD
:100C600013D03C4211D01A68920606D40A241A689E
:100C7000A2431A600122831DDA770022431D4E60D1
:100C8000DA77C36A9342E5D1F8BD0826370097406A
:100C90003D42F9D03442F7D00E251C68AC431C60AD
:100CA00001231C009440821D4C60C363D377002253
:100CB000431DDA77436BE5E7F0B5584A0B688218B5
:100CC000541EA24187B0049300230532039105927C
:100CD000049ADA4001D107B0F0BD012637009F40E9
:100CE000049A3A40029200D195E0039A5268019228
:100CF0001022019D95436A1EB24213D80324590065
:100D00008C408C4682680399A243CC6861468C4033
:100D100022438260019A4468120932409A40BC43DF
:100D20002243426003225F00BA400399D2438C6899
:100D3000C668BC4016403443C460022D0ED10F215A
:100D400005351D40AD00A940DC08A4000419266A41
:100D50008E4303990969A9400E432662032604685D
:100D60002240019C3440BC4022430260019AD200E0
:100D700051D51D000F2701213540AD00AF40284C53
:100D80008C46626B0A436263264A9C08A400A4183E
:100D9000A268BA43A0271100FF050022B84210D074
:100DA000214F6246B8420CD0204F9218B84208D06A
:100DB0001F4F3200B84204D01E4E6244B04200D0F1
:100DC000059AAA400A430299A2600D001A4ACC4330
:100DD000166801993543C90301D4350025401560D3
:100DE0005668029D01993543890301D43500254099
:100DF00055609668029D01993543C90201D43500BA
:100E000025409560D568029E01992E43890201D440
:100E100025402E00D66001335AE7C04600E4FFAFFC
:100E20000010024000000140000400500008005083
:100E3000000C005000100050000401400069084000
:100E4000411E8841C0B27047002A01D081617047BD
:100E50008162FCE70C22184B10B5D9680A40082AB9
:100E600026D00C2A06D0042A1AD11B68DB0621D40E
:100E7000124810BD8A021248120F825C0902D8681B
:100E8000890F0131C00304D50E485043FFF750F9D4
:100E9000EFE71B68DB0601D50B48F6E70748F4E7E8
:100EA00080205B6800021B045B0F01339840E0E781
:100EB0000448DEE70448DCE7001002400024F400A8
:100EC0008522000800127A0000093D00F0B50500F7
:100ED00087B0002802D1012007B0F0BD0C23C24C1E
:100EE000E668E2681E4080235B021A4001920268B5
:100EF000D20741D42B689B0700D587E02B68DB061F
:100F000028D5002E00D0E1E023689B0502D5EB69CF
:100F1000002BE0D06268B5496B6A0A401A436260F0
:100F200061682A6A0902090A12060A43626080227D
:100F30005B0B013312029A401300E16800200A069D
:100F4000AB49120F8A5CD340AA4A1360FFF786FAB6
:100F50000028C1D12B681B0700D5EEE02B685B078A
:100F600000D510E12B689B0600D595E1AB6A002BFC
:100F700000D0C4E10020AFE7082E04D00C2E09D128
:100F8000019A002A06D023689B03B3D56B68002B17
:100F9000B0D1A0E76A689A4211D122681343236056
:100FA000FFF7A0FA07008022236892021342A1D122
:100FB000FFF798FAC01B6428F5D903208CE7A0211D
:100FC000C9028A4205D180222168D2020A432260E6
:100FD000E3E7216888480140216021680B400593C0
:100FE000059B864923680B402360002AD8D1FFF770
:100FF00079FA0700802223689202134200D179E730
:10100000FFF770FAC01B6428F4D9D6E72022EB68FA
:10101000134203D02168934311432160042E04D06E
:101020000C2E25D1019A002A22D12268520702D51E
:10103000002B00D14FE761682A6971481202014014
:101040000A430921626022688A4313432360FFF741
:1010500001FFE368664A1B061B0FD35CD840654B53
:1010600018600020FFF7FAF9002800D146E733E7BF
:10107000002B19D0092122688A4313432360FFF70C
:1010800031FA070004222368134207D062682B69F3
:101090005B491B020A40134363602FE7FFF722FA04
:1010A000C01B0228EED988E70122236893432360FE
:1010B000FFF718FA070004222368134200D11DE746
:1010C000FFF710FAC01B0228F5D976E7EB69002B71
:1010D00020D0802322685B0013432360FFF702FACD
:1010E000070080222368920013420DD063683F4AB4
:1010F00013406A6A1343636062682B6A12021B061C
:10110000120A1343636025E7FFF7ECF9C01B0228BE
:10111000E7D952E723683B4A13402360FFF7E2F91F
:101120000700802223689200134200D112E7FFF7E4
:10113000D9F9C01B0228F4D93FE76A690123002AC4
:1011400010D0226D13432365FFF7CCF9070002226C
:10115000236D134200D001E7FFF7C4F9C01B02283A
:10116000F5D92AE7226D9A432265FFF7BBF90700FC
:101170000222236D134200D1F0E6FFF7B3F9C01B42
:101180000228F5D919E780230021A26B5B050191A4
:101190001A4204D1A26B1343A3630123019380225B
:1011A000194F52003B68134208D08022AB685200AE
:1011B00093422BD1226D134323654CE080223B6880
:1011C000520013433B60FFF78DF980235B000290D0
:1011D00003933B68039A1342E7D1FFF783F9029B1D
:1011E000C01A6428F5D9E8E600100240FF1FFFFF8F
:1011F0006D2200080C000020FFFFFEFFFFFFFBFF39
:10120000FFE0FFFFFFFEFFFF00700040002B16D144
:10121000236D6C4A13402365236D6B4A134023658D
:10122000FFF760F907008022236D920013422AD055
:10123000FFF758F9654BC01B9842F4D9BDE6A021D1
:10124000C9008B420BD18023216DDB000B4323654A
:10125000236D1A432265FFF745F907000EE0236D61
:10126000584A13402365236D574A1340A4E7FFF7FC
:1012700039F9564BC01B984200D99EE68022236D57
:1012800092001342F3D0019B012B00D06AE6A36BBE
:101290004F4A1340A36365E6A96901234D4A00291B
:1012A00018D0A1681943A160616B0B43636380236D
:1012B000116A9B010B431362FFF714F90700022226
:1012C000A368134200D051E6FFF70CF9C01B0228B7
:1012D000F5D972E6A1689943A160136A3E490B40B3
:1012E0001362FFF7FFF807000222A368134200D140
:1012F0003CE6FFF7F7F8C01B0228F5D95DE60C2E97
:1013000043D0364A022B2ED1236880261340236017
:10131000FFF7E8F80700B604236833421DD1296BB4
:10132000EB6AE2680B432E490A4013436A6B80253F
:101330001343E360802322685B0413432360FFF7B9
:10134000D1F80600AD0423682B4200D012E6FFF767
:10135000C9F8801B0228F6D92FE6FFF7C3F8C01B97
:101360000228D9D929E62368802513402360FFF796
:10137000B9F80600AD0423682B4200D1FAE5FFF767
:10138000B1F8801B0228F6D917E61800012B00D10E
:10139000A2E58022E368E96A52021A4001208A42EB
:1013A00000D099E5F022296B92031A408A4200D0BE
:1013B00092E5C02000040340686B181A431E984150
:1013C000C0B289E5FFFEFFFFFFFBFFFF88130000AF
:1013D000FFFFFFEF00000140FFDFFFFFFFFFFFFE09
:1013E000FFFF02FFF7B5061E019101D10120FEBDEE
:1013F0000122514C0199236813408B4227D3326854
:1014000093072FD4D30735D40123226801991A40BA
:10141000914200D281E03268484C530700D584E005
:10142000130706D5E26833694549DB000A401343D8
:10143000E360FFF70FFDE368424A1B061B0FD35C16
:10144000D840414B18600020FFF708F8CFE7236829
:10145000019993430B43236023681340019A9A42F6
:10146000C4D1CCE7F0203549CB688343B06803434F
:10147000CB60C7E7314D72682B68022A19D19B03F4
:10148000B4D50321EB688B431343EB60FFF72AF8D5
:1014900073680700022B19D10C22EB681340082B4C
:1014A000B2D0FFF71FF8294BC01B9842F4D9032094
:1014B0009DE7032A02D19B01E3D497E7012A02D1D9
:1014C0005B07DED492E79B05DBD48FE7032B0BD1C0
:1014D0000C22EB681340934296D0FFF703F81B4BA6
:1014E000C01B9842F4D9E2E7012B10D00C22EB6824
:1014F000134289D0FEF7F6FF144BC01B9842F5D972
:10150000D5E7FEF7EFFF114BC01B9842CFD80C2256
:10151000EB681340042BF4D176E722689A432260EB
:1015200022681A4200D061E775E7E36808490B407A
:10153000F1680B43E36073E70020024000100240B3
:10154000FFC7FFFF6D2200080C0000208813000079
:10155000FFF8FFFF044B054ADB685B055B0FD35CBC
:10156000034A1068D8407047001002407D220008EE
:101570000C000020044B054ADB689B045B0FD35C26
:10158000034A1068D8407047001002407D220008CE
:101590000C0000208223F7B502681B0105001A42E7
:1015A00048D080230021654C5B05A26B00911A4254
:1015B00004D1A26B1343A363012300938027604EE1
:1015C0007F0033683B4277D06968C02208002368F7
:1015D000920313401040834203D1A8680240934213
:1015E00009D0C0230A009B021A409A4203D1236803
:1015F00001209B0371D4C022236D9202134000D0BE
:101600006CE06968C0230A009B021A409A4207D125
:1016100023684C480340C020800301400B432360F3
:10162000236D1A43009B2265012B03D1A36B464A0D
:101630001340A3632B68DA0706D503203F49CA6C21
:101640008243E8680243CA649A0706D50C203B49E6
:10165000CA6C824328690243CA645A0706D53749CF
:101660003A48CA6C024068690243CA641A0706D540
:1016700032493748CA6C0240A8690243CA64DA0595
:1016800006D52E493348CA6C0240E8690243CA6451
:101690005A0606D529493048CA6C0240686A024396
:1016A000CA6400201B0618D5244A2C49D36C0B4071
:1016B000296A0B43D36410E033683B433360FEF781
:1016C00011FF019033683B4200D07DE7FEF70AFF2F
:1016D000019BC01A6428F5D90320FEBD11408B423E
:1016E00002D02968890608D4A9680A40934200D12B
:1016F00087E72B681B0500D483E78022216D206DCE
:10170000120302432265226D124B15480B40024022
:1017100022652365CB0500D473E7FEF7E3FE80273F
:101720000600BF00236D3B4200D06AE7FEF7DAFEF9
:101730000C4B801B9842F5D9CEE7C0460010024002
:1017400000700040FFFFCFFFFFFFFFEFFFF3FFFF41
:10175000FFCFFFFFFFFFFCFFFFFFFFFBFFFFF3FFDC
:10176000FFFFF7FF88130000F8B504002569A268A1
:1017700003682A436569C1692A431868814D0A4391
:10178000284002431A605A687F48804D0240E06852
:1017900002435A60A069AB4201D0226A10439A68A2
:1017A0007B4E324002439A607A4A934213D103221D
:1017B000794BDB6C1340794AD05C80231B02994241
:1017C00000D1D1E0082826D8FEF79EFCC0969925C6
:1017D000B4252525B700724A934205D10C226E4BE1
:1017E000DB6C13406F4AE7E76F4A934200D1A9E0F0
:1017F0006E4A934200D1A5E0AB4200D0ADE0C021DB
:101800008020654A0901D36CC0000B40834238D068
:1018100003D8002B0AD001250DE08020000183426F
:101820000ED08B42F7D1802000020DE0FFF792FE30
:101830000025A84208D10023280023666366F8BD6E
:101840001368DB0620D55A48032263685A43824254
:10185000E1D81A038242DED30027020E01025E089D
:1018600089197A41080011001A003B00FEF7ECFCD0
:10187000504BC218504B9A42CDD823683D00D860D7
:10188000D9E7FFF7E7FAD3E74C48DDE7FFF762FE59
:10189000636840005B08C01861680BE0FFF76AFEF0
:1018A000F6E710253C4B61681A684808154006D0D9
:1018B000434BC018FEF73CFC002583B204E0414BCB
:1018C000C018FEF735FC83B219003F481039814239
:1018D000A1D80F2118001B0788435B0F2168034321
:1018E000CB60A8E7FFF7B6FAD2E763685808802311
:1018F0005B02D0E70023E7E7FFF73CFE28E0102576
:10190000254B61681A684808154006D0284BC01856
:10191000FEF70EFC002583B204E0284BC018FEF74A
:1019200007FC83B2190028481039814200D972E7B8
:101930002168D5E7FFF78EFA0AE06368580880232C
:101940001B0207E080231B0299429FD0FFF702FE93
:1019500063685B08C0186168DAE7802301251B0211
:101960009942C7D00023DDE7082800D953E7FEF7E6
:10197000D5FB8DFF95FF98FF52FFB9FF52FF52FF35
:1019800052FFBCFFF369FFEFFFCFFFFF00480040AD
:10199000FFF4FFFF00380140001002405C22000805
:1019A0000044004060220008004C0040005000400D
:1019B00000093D0000FDFFFFFFFC0F000024F400C4
:1019C00000127A000048E801EFFF0000436A30B5DA
:1019D000DA0706D50168284C4A682240846A224307
:1019E0004A609A0706D50168244C4A682240C46AB6
:1019F00022434A605A0706D50168214C4A682240B2
:101A0000046B22434A601A0706D501681D4C4A68D8
:101A10002240446B22434A60DA0606D501681A4C1C
:101A20008A682240846B22438A609A0606D5016840
:101A3000164C8A682240C46B22438A605A0610D52D
:101A40000168134D4A68046C2A4022434A60802290
:101A50005203944205D14A680E4C2240446C224302
:101A60004A601B0606D502680B4953680B40816C1F
:101A70000B43536030BDC046FFFFFDFFFFFFFEFF7D
:101A8000FFFFFBFFFF7FFFFFFFEFFFFFFFDFFFFF1A
:101A9000FFFFEFFFFFFF9FFFFFFFF7FFF8B5040019
:101AA0000E0015001F002268D36933409B1B59426A
:101AB0004B41AB4201D000201BE0069B0133F3D029
:101AC000FEF710FD069BC01B834201D3002BEAD119
:101AD000236808491A6803200A401A609A68A331EB
:101AE000FF318A439A6020236367A3670023703421
:101AF0002370F8BD5FFEFFFFF0B587B00593436F1D
:101B000004000D0017000220202B49D101380029C4
:101B100046D0002A44D08023A2685B019A4204D1B7
:101B20002369002B01D101423AD1230070331A7886
:101B30000220012A34D0012200261A702123E667F0
:101B40006367FEF7CFFC230050331F8002330393FB
:101B50001F808023A26804905B019A4204D123690C
:101B6000B34201D12E001D00230052331A88059B79
:101B700092B20093049B002A0AD140212000FFF773
:101B80008DFF00280BD1202370346360207007E0A4
:101B9000002280212000FFF781FF002802D00320CF
:101BA00007B0F0BD2268002D0BD133880236DB056B
:101BB000DB0D9362039B039A1B88013B9BB213804E
:101BC000D2E72B7801359362F4E7000073B5002665
:101BD0000400C667FEF786FC236805001B681B0728
:101BE00015D423681B685B070AD580210E4B0022A1
:101BF0000093C9032B002000FFF750FF002811D1EC
:101C0000202300206367A367703420700BE08021DD
:101C1000054B32000093890303002000FFF73EFFCD
:101C20000028DED0032076BDFFFFFF0110B5041EA3
:101C300001D1012010BD436F002B04D1020070328E
:101C4000137000F03DFA24230121226863671368B2
:101C500020008B431360FFF787FD0128E9D0636AFA
:101C6000002B02D02000FFF7B1FE236807495A6815
:101C700020000A402A215A609A688A439A60012209
:101C800019680A431A60FFF7A1FFD3E7FFB7FFFF08
:101C900010B59EB03822002110A800F0CBFA142213
:101CA000002101A800F0C6FA2822002106A800F0B1
:101CB000C1FA1349134A0B6800241A4080231B0100
:101CC00013430B60102310930F3B1793A02310A80E
:101CD0001B02199318941A94FFF7F8F80F232100A8
:101CE00001A801930294039404940594FFF77AFBEE
:101CF000022306A806930A94FFF74CFC1EB010BD01
:101D000000700040FFE7FFFFF0B504278DB0FEF73D
:101D1000C9FBFFF7BDFF1422002107A800F08AFAD3
:101D2000802201269F4DA020EB6A20213B43EB62DD
:101D3000EB6AC0053B400393039BEB6A002413430B
:101D4000EB62EB6A13400493049BEB6A7E3A3343E5
:101D5000EB62EB6A33400593059BEB6A1343EB623E
:101D6000EB6A134006930022069BFFF76DF895215E
:101D70000022C9008C48FFF767F880239B01079376
:101D80008A4B07A98A4808930994FEF795FFA0207B
:101D9000202307A9C0050793089609940A94FEF723
:101DA0008BFF852307A9DB007F48079308960994DA
:101DB0000A94FEF781FF802307A97B4807930896C2
:101DC00009940A94FEF778FF8023A020DB00079394
:101DD000022307A9C00509930894FEF76DFF2B6B3A
:101DE000220033432B632B6B2100334002930920E5
:101DF000029BFEF73FFE0920FEF76CFE0822210041
:101E000007A800F017FA6B4D6B4B28002B6080235E
:101E10001B066B600823AB60AB19DE77AB1CDC776D
:101E2000C223FF336B622B002C331E702E61EC63D8
:101E3000AF63EC60AC626F612C63AC616C63EC61AE
:101E4000FEF7B6FB5D4B07A90793802328005B01D3
:101E50000893FEF7A9FD5A4E5A4B30003360E12338
:101E60005B0273600C23B4607361F4603461B4612D
:101E7000F46134627462FFF7D9FE80225249D200C5
:101E80002800FEF7F7FC8023DB0001932800FEF713
:101E900067FC0A212800FEF78FFC041E29D12800C8
:101EA000FEF732FD494F01003860642306223000FE
:101EB000FFF722FE3B685A1EF82A50D8220008215C
:101EC0003948FEF7C1FF012201993748FEF7BCFFF0
:101ED0003F4A3B689B1895225200934257D80022F4
:101EE00080213148FEF7B0FF012208212E48FEF77D
:101EF000ABFF3220FEF7FCFAA0200199C005FEF7E7
:101F00009DFF344B344C1B78002845D02F4A126873
:101F1000002A41D195272370FF002378002BB5D0EC
:101F2000390001222048FEF78FFFA0200022202147
:101F3000C005FEF789FFFA204000FEF7D9FA390004
:101F400000221948FEF780FFA02001222021C005B1
:101F5000FEF77AFFFA204000FEF7CAFADDE71A0022
:101F6000FB3AF82A07D8220001990F48FEF76CFFC8
:101F700001222021A9E7F63BFF3BC62BA8D822006F
:101F800020210948FEF760FF012280219DE7A02063
:101F900000222021C005AAE75A425341DBB2237038
:101FA00074E7C046001002400004005000002110F9
:101FB0000008005014090020002401400008002CF3
:101FC0004C080020004400404A0000202C00002063
:101FD00043FDFFFF080000204800002010B501224B
:101FE00080210248FEF730FF10BDC04600080050B7
:101FF00010B5002280210448FEF726FF012220218F
:102000000248FEF721FF10BD0008005000040050F8
:10201000704700000122054B596B0A435A63802226
:10202000996B52050A439A637047C04600100240FC
:1020300030B5050087B01422002101A800F0FAF89D
:102040001A4B2A689A422FD18022194B9200596B61
:1020500018480A4304215A63DA6A0A43DA62DB6ADF
:102060000B400093009B022301A9019301330293CB
:10207000FEF722FE8022104C104B22619218626102
:102080008022D2002360A26100232022200063600E
:10209000A360E360E2612362FEF740FD002801D007
:1020A000FFF7B6FFEC64A56207B030BD0024014025
:1020B0000010024000080050CC0800200800024038
:1020C00010B5040086B01422002101A800F0B2F877
:1020D000104B22689A421AD180220F4B9202996BC0
:1020E000A0200A4301219A63DA6AC0050A43DA6232
:1020F000DB6A0B400093009B0C2301930A3B029385
:102100005B1804935B1801A90593FEF7D5FD06B093
:1021100010BDC04600440040001002407047FEE77A
:102120007047704710B5FEF7D1F910BD10B50248E1
:10213000FEF777FD10BDC046CC0800208022104B72
:10214000520019680A431A60DA680E490A40DA60D8
:102150001A680D490A4001211A609A688A439A60F8
:102160001A680A490A401A60DA6809490A40DA60BE
:1021700000221A618022074B12059A607047C04600
:10218000001002400C40FF88F6FFF6FEFFFFFBFF49
:10219000FFFF02FF00ED00E00D488546002103E04F
:1021A0000C4B5B58435004310B480C4B42189A427D
:1021B000F6D30B4A02E0002313600432094B9A4223
:1021C000F9D3FFF7BBFF00F011F8FFF79DFDFEE725
:1021D00000500020A0220008000000201000002075
:1021E0001000002070090020FEE7000070B50026F6
:1021F0000C4D0D4C641BA410A64209D1002600F022
:1022000021F80A4D0A4C641BA410A64205D170BDEA
:10221000B300EB5898470136EEE7B300EB58984708
:102220000136F2E798220008982200089822000858
:102230009C22000803008218934200D17047197055
:102240000133F9E7F8B5C046F8BC08BC9E467047B4
:0C225000F8B5C046F8BC08BC9E467047BC
:10225C0001040208001010100410101002101010CD
:10226C00080000000000000000010203040607083B
:10227C00090000000001020304030406080C1018F6
:04228C0020300000FE
:08229000F8DFFF7F01000000F0
:04229800E900000851
:04229C00C100000875
:1022A0000100000004000000010000000000200008
:040000050800219935
:00000001FF
