:020000040800F2
:100000000050002061500008994F00089B4F0008E5
:1000100000000000000000000000000000000000E0
:100020000000000000000000000000009D4F0008DC
:1000300000000000000000009F4F0008A14F0008D2
:10004000B1500008B1500008B1500008B15000088C
:10005000B1500008B1500008B1500008B15000087C
:10006000B1500008B1500008B1500008B15000086C
:10007000B1500008B1500008B1500008B15000085C
:10008000B1500008B1500008B15000080000000055
:10009000B1500008B1500008B1500008B15000083C
:1000A000B1500008B1500008B1500008B15000082C
:1000B000B1500008B1500008B1500008B15000081C
:1000C00010B5064C2378002B07D1054B002B02D02E
:1000D000044800E000BF0123237010BDD4010020BC
:1000E0000000000074550008044B10B5002B03D02D
:1000F0000349044800E000BF10BDC04600000000F6
:10010000D8010020745500080023C25C0133002A86
:10011000FBD1581E7047000002B4714649084900DF
:10012000095C49008E4402BC7047C04603B4714666
:10013000490840004900095E49008E4403BC7047ED
:10014000002243088B4274D303098B425FD3030A16
:100150008B4244D3030B8B4228D3030C8B420DD329
:10016000FF22090212BA030C8B4202D312120902B7
:1001700065D0030B8B4219D300E0090AC30B8B42F5
:1001800001D3CB03C01A5241830B8B4201D38B03A3
:10019000C01A5241430B8B4201D34B03C01A524148
:1001A000030B8B4201D30B03C01A5241C30A8B428B
:1001B00001D3CB02C01A5241830A8B4201D38B0276
:1001C000C01A5241430A8B4201D34B02C01A52411A
:1001D000030A8B4201D30B02C01A5241CDD2C3098C
:1001E0008B4201D3CB01C01A524183098B4201D308
:1001F0008B01C01A524143098B4201D34B01C01AF3
:10020000524103098B4201D30B01C01A5241C3086A
:100210008B4201D3CB00C01A524183088B4201D3D9
:100220008B00C01A524143088B4201D34B00C01AC5
:100230005241411A00D20146524110467047FFE731
:1002400001B5002000F0F0F802BDC0460029F7D04B
:1002500076E7704703460B437FD4002243088B4266
:1002600074D303098B425FD3030A8B4244D3030B3D
:100270008B4228D3030C8B420DD3FF22090212BA02
:10028000030C8B4202D31212090265D0030B8B427E
:1002900019D300E0090AC30B8B4201D3CB03C01A68
:1002A0005241830B8B4201D38B03C01A5241430B43
:1002B0008B4201D34B03C01A5241030B8B4201D333
:1002C0000B03C01A5241C30A8B4201D3CB02C01A9E
:1002D0005241830A8B4201D38B02C01A5241430A16
:1002E0008B4201D34B02C01A5241030A8B4201D305
:1002F0000B02C01A5241CDD2C3098B4201D3CB01AC
:10030000C01A524183098B4201D38B01C01A52415A
:1003100043098B4201D34B01C01A524103098B425E
:1003200001D30B01C01A5241C3088B4201D3CB0049
:10033000C01A524183088B4201D38B00C01A52412C
:1003400043088B4201D34B00C01A5241411A00D2DC
:1003500001465241104670475DE0CA0F00D0494245
:10036000031000D34042534000229C4603098B42B5
:100370002DD3030A8B4212D3FC22890112BA030A3D
:100380008B420CD3890192118B4208D389019211BF
:100390008B4204D389013AD0921100E08909C30944
:1003A0008B4201D3CB01C01A524183098B4201D346
:1003B0008B01C01A524143098B4201D34B01C01A31
:1003C000524103098B4201D30B01C01A5241C308A9
:1003D0008B4201D3CB00C01A524183088B4201D318
:1003E0008B00C01A5241D9D243088B4201D34B0033
:1003F000C01A5241411A00D20146634652415B1075
:10040000104601D34042002B00D549427047634655
:100410005B1000D3404201B5002000F005F802BD9A
:100420000029F8D016E770477047C0468446101C74
:1004300062468C46191C634600E0C0461FB500F0BA
:1004400033FF002801D40021C8421FBD10B500F0C1
:100450007DFE4042013010BD10B500F025FF0028A0
:1004600001DB002010BD012010BDC04610B500F01A
:100470001BFF002801DD002010BD012010BDC0467B
:1004800010B500F09FFE002801DC002010BD012007
:1004900010BDC04610B500F095FE002801DA00201E
:1004A00010BD012010BDC046F0B54F46D6464646A9
:1004B0000D0001001800C0B517002B035A0A4B0F9E
:1004C0001343CA00914602036E004100520AEC0F2A
:1004D0007D0F1543760D490DC00F8246AC46FF00D7
:1004E000721A844200D198E0002A00DC81E00029E1
:1004F00000D1B6E0C9498E4200D172E180212800C6
:10050000090408438446382A00DD5EE11F2A00DD25
:10051000EEE1202039006546801A8740D1408540B1
:100520000D4339004F1EB9416746D7402943DB1BB5
:100530004A46551AA945894149425B1A984643469D
:100540001B0200D4CCE043465B025B0A984643465C
:10055000002B00D12CE1404601F0BEFD010008391E
:10056000202228004346521A8B40D0408D4003433E
:100570008E4200DD17E18E1B721C1F2A00DDA7E1F1
:10058000202118002E00891A8D408840D640D34083
:10059000691E8D4130439846002605436B0709D0FC
:1005A0000F232B40042B05D02B1DAB42AD416D42D8
:1005B000A8441D0043461B0200D494E0974B721CD4
:1005C0009A4200D19DE04146954BED0819400B0041
:1005D000520549075B0229431B0B520D12051343B9
:1005E000E407234308001900E0BCBA46B146A84618
:1005F000F0BD002A43D08A1B002E00D02AE14C46D1
:100600001C4300D1D1E1541E012A00D11FE2834DC9
:10061000AA4200D172E2220023E1002A00DC98E025
:10062000002942D07D498E4200D1DAE080212800A5
:10063000090408438446382A00DD29E11F2A00DC2A
:1006400087E1110065462039CD40202A04D04020A2
:100650006146821A91400F4339004F1EB9410D4344
:100660001BE12900394300D1B5E0511E012A00D118
:10067000ABE16A48824200D1B2E10A0043E769492E
:10068000751C0D4200D0CFE0002E00D093E149460A
:10069000194300D1D1E16146394300D0E3E1494635
:1006A0005807C9080143DB0826E02900394300D177
:1006B00091E0511E012A05D05848824200D18FE1B5
:1006C0000A00B8E73D004D444D45894163449846D2
:1006D00049428844434602261B0200D5EBE0013E16
:1006E0006B0700D05CE74346E9085A071143320024
:1006F000DB084A48824221D01B0352051B0B520DD6
:100700006CE70023002169E72A003A4369D04A4692
:100710005807D108DA0880231B0308431A4207D080
:100720002900ED081D4203D12A00FF08480738437D
:10073000430FC1005B07C908194313000A001A439D
:1007400000D113E28022120313431B03334A1B0B15
:1007500044E7002A4BD08A1B002E00D1E7E02F4847
:10076000814200D195E1802000040343382A00DD56
:1007700043E11F2A00DDDBE120201D004E46801AE8
:100780008540D64035434E4686403000D340461E15
:10079000B0419C440543ED19BD429B415B4263441B
:1007A00098460E007FE01E4A761A13409846F5E6FA
:1007B000280001F091FC010018311F2900DCCFE670
:1007C0002B00083883400025D2E662463A431100E8
:1007D0004F1EB941ACE649465807C9080143DB083A
:1007E00087E749465A07C9081143DB08A6E70D49C0
:1007F000701C084200D0BBE0002E00D014E1494636
:10080000194300D175E12900394300D07EE1494602
:100810005807C9080143DB086EE7C046FF07000020
:10082000FFFF7FFFFE0700004946CD1B6146581AB7
:10083000A94589414942884601004046091A88462F
:10084000090200D5A6E04146294300D07FE60023F7
:10085000002451E7C74CA14200D1C7E08024240402
:100860002343382A54DC1F2A00DDCCE020244846EC
:10087000A41A1D004E46A040D640A5400400D34017
:1008800062463543661EB441D31A9C46254344E074
:1008900062463A4315006F1EBD414D444D458941A6
:1008A00049428846984443461B0200D418E7B14B9E
:1008B00001369E4249D04246AF4B01211A401300F7
:1008C0006A080D401543D9075B0898460D4365E655
:1008D00018001F3EF040202A03D040218A1A93407E
:1008E0001D43691E8D410023002698460543F7E607
:1008F000110065462039CD40202A04D040206146B1
:10090000821A91400F4339004F1EB94129430FE627
:100910004A4613431D006B1E9D417D1BAF429B4108
:1009200062465B42D31A984654460E0007E6484694
:10093000184300D1B3E0501E012A00D10DE18D4DC6
:10094000AA4200D1A5E0020010E7320000230021F6
:1009500044E620213800891A65468F408D40D040FA
:10096000791E8F4105433D436746D740DB1994E725
:10097000804A904200D1ECE0390049444945924117
:10098000634452429B18DD0749085B0898460600FD
:100990000D43A5E64A46BD1AAF4289416246494227
:1009A000D31A5B1A98465446D1E56C07F9082143DF
:1009B000EB0804009DE64A461A4375D16146394367
:1009C00014D1802300241B03BCE64A46D51BA9454D
:1009D0008941624649429B1A5B1A98460126AEE558
:1009E0004A46D1085A071143DB08A7E66346F908CF
:1009F0005A0754461143DB08A0E64A4613431D003C
:100A00006B1E9D41C7E614001E00203CE640202AD4
:100A100005D04024A21A93404A461A4391464D46B7
:100A20006B1E9D41354378E74A461A4300D06BE67A
:100A30006B07F9081943EB0880E66146394354D047
:100A40006346F9085C072143DB08040054E64A4684
:100A5000BD1AAF42894162464942D31A5B1A984691
:100A6000040001266BE54A46D51BA945894162462B
:100A700049429A1A521A9046120232D54A46BD1A73
:100A8000AF42894162464942D31A5B1A9846040034
:100A900084E56346F9085A071143DB084EE6F90876
:100AA00068070143EB0824E662463A4300D198E622
:100AB0004A46D1085A071143DA0880231B031A4219
:100AC00008D06046C5081D4204D154462A00F908E2
:100AD000430719434B0FC9005B07C90819431300AB
:100AE0002CE64146294300D0FAE500230A00002401
:100AF00002E66B07F9081943EB08FDE56346F908C0
:100B00005B07194363460400DB0817E63D004D44CC
:100B100063444D45894198464942884443461B02F7
:100B200000D4DDE54246144B01261A409046D7E535
:100B300010001E002038C640202A05D04020821A0E
:100B400093404A461A4391464D466B1E9D4135439C
:100B500021E602000023002140E54A46D519BD42A6
:100B600089416344984649428844B3E50021014ADB
:100B70000B0033E5FF070000FFFF7FFFF0B557468E
:100B80004E464546DE46E0B5814605000C0348006A
:100B900092461F0085B0240B400DCE0F002859D07F
:100BA000874B984200D198E06B0FE4001C438023F0
:100BB0001B0423439846834BED009B460023994634
:100BC000834400933C037B005046240B5B0DFF0FD6
:100BD000002B67D07A4A934218D07A49420F8C464C
:100BE000E40059461443802263441204CB1A144390
:100BF0009B46C200002033007B409A464B460F2B99
:100C000000D9EFE070499B00CB589F466F4B52468E
:100C10009C462243E344002A00D095E04946022343
:100C20001943894600240220E5E70023002400251B
:100C300052461B052343D20713432800190005B071
:100C4000F0BCBB46B246A946A046F0BD0024002534
:100C50005B4BEDE74B462343984600D189E0002CDF
:100C600000D1E0E1200001F037FA010002000B3969
:100C70001D235B1A49461000D940083884400B00F8
:100C80004D4623439846854051483C03831A9B4672
:100C90000023994600937B005046240B5B0DFF0F09
:100CA000002B97D15246224355D0002C00D1CAE1E7
:100CB000200001F011FA02000B3A1D2301009B1ADB
:100CC00052460839DA408C40144352468A40414B20
:100CD00058449B46834400208DE74B462343984667
:100CE00040D108239946063B00258346009369E7D7
:100CF000B246009B022BA9D0032B00D111E2012B9D
:100D000093D0354A5A44002A00DC3CE16B0700D0FE
:100D1000A7E1ED084346DB0106D542462F4B1A40BA
:100D200090468022D2005A442D4B9A428EDC434694
:100D3000520558075C020543240B530D78E7BA4669
:100D4000A04615000090D4E74A4603231A43914673
:100D5000032052464FE749460123194389460024A0
:100D6000012048E70C239946093BA046834600939F
:100D700028E70423994600239B460133002500936E
:100D800020E7002380249A4600250D4B24034FE7DB
:100D9000802341461B03194208D01C4206D11C4344
:100DA0002403BA461500064B240B41E78024434632
:100DB00024031C432403B246014B240B38E7C046EE
:100DC000FF07000001FCFFFF9055000801F8FFFF3E
:100DD0000DFCFFFFF3030000FF030000FFFFFFFE19
:100DE000FE070000444500D216E100D111E10123C5
:100DF0005B429C462E0040460025E3442302140E2D
:100E00001C431B0C994623041F0C120249460092F6
:100E10000197FFF71BFA02007A430B04310C80465E
:100E200019438A420BD901235B429C460919E044CD
:100E30008C4204D88A4202D9831E98460919881A1E
:100E40004946FFF703FA09048C4631046646019AC5
:100E5000090C4243030031438A4204D90919013B7A
:100E60008C4200D811E1891A4246009E12041A43AE
:100E7000330C1F00100C9046029313043204160C1E
:100E800032001B0C5A4303967B4346437843170CAE
:100E9000BC469B1963449E4203D980267602B44621
:100EA00060441E0C301816041B04360C9E19814237
:100EB00000D29CE000D197E0AE1B091AB5428041F8
:100EC0004042081A844200D111E14946FFF7BEF9B9
:100ED000019A0B044243310C050019438A4207D999
:100EE0000919013D8C4203D88A4201D9851E09198E
:100EF000881A4946FFF7AAF909048C463104664668
:100F0000019A090C4243030031438A4207D9091967
:100F1000013B8C4203D88A4201D9831E0919039EE2
:100F2000891A32002D041D43029F2B041B0C5A43C7
:100F30007B439C46280C4643130CB44463447843DB
:100F40009E4203D980267602B44660441E0C1204E9
:100F50001B04120C30189B18814206D302D00123C7
:100F60001D43CEE6002B00D1CBE661186E1EA142D8
:100F700000D2A4E0814200D2C9E000D1D9E035001E
:100F8000EDE701256D420121891A382900DD4CE683
:100F90001F2900DC7FE01F235B429A1A4346D3409F
:100FA000202904D04446654A5A44944025436A1E89
:100FB000954107222B43150000241D401A4200D101
:100FC000A1E00F2200241A40042A00D198E01A1D43
:100FD0009A429B415B42E4181300220200D48FE046
:100FE00001230024002523E6B54200D364E74346ED
:100FF0005A1E009B9C4665441F009D429B415B42DC
:101000001B19C9188C423AD2884263D860D09046E6
:1010100052E7AA4200D9EAE64346DE0758086B08C1
:101020001E43ED07EAE6484601F056F801000200CB
:10103000153120321C2900DC1AE64B460838834063
:101040000025984620E601F047F803001A00153203
:1010500020301C2A00DC30E65446083B00229C402D
:1010600035E60F232B40042B00D152E605235B42CB
:10107000AB429B4104355B42ED0898444AE68C4202
:10108000C5D1AF42C0D9904616E78A4200D8EAE6F9
:10109000831E0919E7E62A4A28005A444346954028
:1010A0009340C8406A1E9541444603432B43CC40BD
:1010B0005A0792D00F221A40042A88D18DE73500B2
:1010C000814200D04BE7009A934200D047E718E6F0
:1010D000AE429CD902235B429C46009BE0449C4666
:1010E00065449D429B415B421B19C918E4E6154AC1
:1010F0005A44002A00DC44E701230025984409E60D
:1011000065076402240BDB081D43002390E5009E65
:10111000023D7200B242BF417F423C190919009260
:10112000CEE78024434624031C432403064B240BB0
:101130007EE5009A9A42EAD33500C4E73E040000F7
:101140001E040000FF030000FF070000F0B54F463B
:101150004646D646944691461A03120B184DC0B522
:101160004C000F0392465A00060080463F0B0120B8
:10117000640DC90F520DDB0FAC420AD0AA4203D056
:10118000944201D157450DD0E0BCBA46B146A846BD
:10119000F0BD3D003543F7D1A242F5D15246654638
:1011A0002A43F1D10120C845EED1994206D0002C46
:1011B000EAD13E433000461EB041E5E70020E3E7B8
:1011C000FF070000F0B54E4645465746DE46040090
:1011D0001800E0B516001B031B0B324D0F034A002D
:1011E00099464300A446B0463F0B520DC90F5B0D14
:1011F000C00FAA4229D0AB4218D0002A2AD13C43C2
:10120000A34665426541002B02D14C46264327D0B8
:10121000002D15D1814228D0022001390840013823
:10122000F0BCBB46B246A946A046F0BD4D462E4393
:101230002FD1002AEED13C4365426541002DE9D013
:101240000028EDD101204042EAE73D00254320D1AE
:101250009342EBD0002BDDD14C462643DAD1DBE7BD
:101260005B460020002BDBD0D6E79A420ADCE7DBA6
:101270004F45D1D810D000204F45D1D20029E1D020
:101280000800CDE74342584102234042184001384C
:10129000C6E702204042C3E7C445BDD80020C4458C
:1012A000BED2EBE7FF070000F0B54E464546574675
:1012B000DE4604001800E0B516001B031B0B314D81
:1012C0000F034A0099464300A446B0463F0B520D17
:1012D000C90F5B0DC00FAA4211D0AB4214D0002A37
:1012E0002FD13C43A34665426541002B14D14C46A7
:1012F000264311D15B460020002B17D010E03D00A3
:10130000254312D193421CD14D462E430DD1002AC4
:1013100004D13C4365426541002D0DD1814216D078
:10132000022001390840013800E00220F0BCBB4631
:10133000B246A946A046F0BD0028F7D101204042A0
:10134000F4E7002BEAD14C462643E7D1E8E79A427E
:1013500006DD434258410223404218400138E5E788
:101360009A42E9DB4F45DBD806D000204F45DDD25D
:101370000029E3D00800D9E7C445D1D80020C445EE
:10138000D4D2F5E7FF070000F0B557464E46454674
:10139000DE46E0B598460C034B000600924687B047
:1013A000240B5B0DCF0F002B6CD0DD4A934200D194
:1013B00086E0420FE4001443802212041443D94A09
:1013C000C500944663440093002399469B464346D8
:1013D00042461E03D20F5B0050469046360B5B0D13
:1013E00000D178E0CE4A93421DD0CE49420F8C46C0
:1013F00000996344F6008C46164380229C441204F4
:1014000063461643C2000020009300994346013111
:101410008C4649467B4001930F2900D97EE0C24BA0
:10142000890059588F465246009B324300D056E1FE
:10143000BB4900268C466344494600930223194366
:1014400089460220E1E743460193340015008346B4
:101450005B46022B5ED0032B00D1F3E1012B00D0C1
:1014600018E1002200240025019B12052243DB071E
:101470001A432800110007B0F0BCBB46B246A9468B
:10148000A046F0BD2500054300D141E1002C00D16C
:10149000ADE1200000F020FE010002000B391D2309
:1014A00010005B1A3100350008388440D94085406F
:1014B0000C439E48831A0093002399469B4686E777
:1014C0000500254300D01CE10822009302230024DC
:1014D00091469B467BE75246324300D10AE1002EFB
:1014E00000D176E1300000F0F7FD02000B3A1D2339
:1014F00001009B1A52460839DA408E401643524684
:101500008A40009B8949181A03008C4663440020D6
:1015100000937AE700240025814AA5E72F0C2D04CB
:101520002D0C2B00110C1204120C5343984613007F
:1015300028007B43994648434844834640460B0075
:10154000000C824658467B4350440293814506D99D
:101550009A4680235B029946CA4453460293030C81
:101560009B4643461B0400041B0C9846030043445F
:101570000493330C99462B003604360C734398467B
:1015800033007B439A464B465D435F434346554495
:10159000180C4019824503D980235B029A465744B0
:1015A000050CEB19059343461D042D0C000440194E
:1015B000250C2404240C270057436A4390462A0034
:1015C0003B0C9A464A436143414451448344884515
:1015D00003D980235B02984642443F040B0C3F0C26
:1015E0000904C919270098464B4677435C436E436C
:1015F0005D433B0C9946A4194C4442440395A642D2
:1016000004D980235B02984645440395029B3F041E
:101610005B441E008342804123049846059B3F0C97
:101620004744984676188E428941474440423D18C7
:10163000A846934649428A46C3449F42BF418045DB
:101640008041039BDA449846534640427F42074319
:10165000240C934592418A4589413F19DC0D049B36
:1016600075021D43681E85415346524249420A4352
:10167000BF184744F60D7F0235435A023C431543D9
:10168000FB0100D4C1E001216A080D401543E207C7
:101690001543640826496144002956DD6B0709D0CB
:1016A0000F222A40042A05D02A1DAA42AD416D42CC
:1016B00064191500E30104D580211E4AC9001440B5
:1016C00061441D4A914200DD24E76207ED0864028F
:1016D00049051543240B4A0DC6E60197B8E6104AA2
:1016E0000320944663444A46009303231A439146D9
:1016F00052468AE6494601231943894600260120BD
:1017000083E60C2200930323050091469B465EE688
:101710000423994600230093013300249B4656E698
:10172000FF07000001FCFFFFD05500080DFCFFFF84
:10173000FF030000FFFFFFFEFE07000000238024E0
:101740000025444A019324038EE60120401A3828DC
:1017500000DD86E61F285BDD1F2223005242511A5E
:10176000CB401900202803D03B4A624494402543D3
:101770006A1E95412A000A4307210D0000241540E6
:1017800011425BD00F2100241140042953D0111DB8
:10179000914292415242A4180A0023024BD50122E1
:1017A0000024002560E680231B031C4209D01E4252
:1017B00007D133431C0343461500240B254A0193EC
:1017C00052E68022120314432403224A240B019779
:1017D0004AE600F081FC03001A00153220301C2A72
:1017E00000DC84E65646083B00229E4089E600F075
:1017F00073FC01000200153120321C2900DC4EE68A
:10180000340008380025844053E6009B9C4641E79D
:101810001249220061442E008D408A40C640691E54
:101820008D4132432A43C4405307B6D00F211140A3
:101830000429ACD1B1E765076402240BD208154333
:10184000002211E68022120314432403014A240BD0
:101850000AE6C046FF0700003E0400001E04000028
:10186000F8B557464E464546DE460400E0B51F0033
:1018700010000B03620F4E00CD0F5B0A39031343B8
:10188000490AE200440F2143C24C91469246C000EF
:101890007A008046760D520DFF0FA24200D1B4E0CF
:1018A00001246740BB46BD4200D188E0B41AA4467B
:1018B000002C00DCB2E0002A00D1C5E0B54A964217
:1018C00000D18BE28022120411436246382A00DDE7
:1018D000A1E11F2A00DD16E220270C00BF1ABC4040
:1018E0000200A0466446B840E24044461443020069
:1018F000501E82416046C14022435B1A49468C1A01
:10190000A145924152429B1A984643461B0200D47D
:1019100017E143465B025B0A98464346002B00D121
:101920006CE1404600F0D8FB0200083A202120007C
:101930004346891A9340C84094400343964200DDD1
:1019400057E1961B711C1F2900DDCBE120221800F6
:101950002600521A94409040CE40CB40621E9441E3
:101960003043984600260443630709D00F232340E1
:10197000042B05D0231DA342A4416442A0441C00B3
:1019800043461B0200D4DFE0824B01369E4200D169
:10199000FBE04246804BE4081A40130071055207F1
:1019A0005B0222431B0B490D0905ED07194329432F
:1019B0001000F0BCBB46B246A946A046F8BDB41A1A
:1019C000A446002C58DD002A00D19EE0714A9642C0
:1019D00000D13BE18022120411436246382A00DD27
:1019E000C1E01F2A00DCBBE10C00203AD4402200F9
:1019F0006446202C04D040273F1BB9400843804652
:101A00004446611E8C411443B1E00C0004432AD0CB
:101A1000BB46BD422DD0614CA446B4446446002C64
:101A20005CD0941BA446002E00D015E14D461D430A
:101A300000D1C3E1651E012C00D10CE2554EB44229
:101A400000D1F8E1AC460EE10A00024300D136E1D4
:101A50002200013A012C00D1C6E14E4CA44500D130
:101A6000F4E0944631E701246740BB46BD4200D014
:101A70001CE74A4CA446B4446446002C00D1CFE095
:101A8000941BA446002E00D15CE1424EB24200D12C
:101A9000ECE18026360433436446382C00DDB3E1A4
:101AA0001F2C00DD38E22026361B1C00B4404F46B8
:101AB000A0466446E74044463C434F46B7403E009C
:101AC000771EBE4134436646F340C9182418844249
:101AD0009B415B429846160088444EE0304A741C95
:101AE000144200D0D6E04A461A43002E00D05BE1F3
:101AF000002A00D1A5E10A00024300D0BBE14A461A
:101B00005907D2080A43DB0827E00A00024300D144
:101B100074E12200013A012C05D01E4CA44500D1ED
:101B200094E0944659E74844484592415B189846EA
:101B3000040052429044434602261B0200D5C4E0F2
:101B4000013E630700D011E74346B4465907E20857
:101B50000A43DB080F498C4540D061461B03490509
:101B60001B0B490D20E701430C00611E8C414C44C6
:101B70004C45924152429046984443461B02E0D560
:101B8000044B01369E4200D09FE03100002300222A
:101B90000AE7C046FF070000FFFF7FFF01F8FFFFD5
:101BA000FE070000002A00D160E10A0002434DD088
:101BB0004A465C07D20822438024DB0824032342E0
:101BC00007D0CE08264204D15D463300C20849073B
:101BD0000A43510FD200D20849070A4311001943A2
:101BE00000D1C8E1802109030B431B03D5491B0B1E
:101BF000DAE6D549B61A0B409846B5E6200000F063
:101C00006BFA020018321F2A00DC8FE62300083826
:101C10008340002492E608430200501E82416DE694
:101C2000CA4C721C224200D0ADE04A461A43002E34
:101C3000B8D1002A00D158E10A00024300D059E18E
:101C40004A465907D2080A43DB0886E74A4659073D
:101C5000D2080A43DB08C1E7BA4DAA4200D11EE10F
:101C600080252D042B436446382C5DDC1F2C00DDC1
:101C7000D0E0202567462D1B4E461C00FE40AC40A0
:101C800034434E46AE403500FB406E1EB541C91A86
:101C90002C434EE04A46141AA145924152429046C6
:101CA0005F1A3A004746D21B9046120200D58BE0DD
:101CB0004246224300D030E6002300254DE74A4645
:101CC0005907D2080A43DB0844E742469E4B6108A5
:101CD0001A401300012214400C43DA075B089846AF
:101CE000144341E61A001F3EF2401600202903D09B
:101CF0004022511A8B401C43621E944100233443FE
:101D0000984600261DE70C00203AD4402200644685
:101D1000202C04D040273F1BB9400843804644464E
:101D2000611E8C412243E9E54C4623431C00631E9F
:101D30009C41041BA0429B415B42CB1A98465D46E6
:101D40001600E2E54E461E4300D1AEE0661E012CB1
:101D500000D1FDE07B4FBC4200D107E1B4469BE6D9
:101D600064462022121B0C00944007009040A046BD
:101D70006446421E90416246E7404446D1403C439F
:101D800004435B18F3E66F4CA24200D1D5E048440F
:101D90005B184845894149425B18DC0740085B08ED
:101DA000984616000443CCE6002A00D082E00A00E0
:101DB000024340D1802300251B0313E74B07C208D1
:101DC0001A435D46CB08C5E64A46841AA0429241B2
:101DD000CB1A52429B1A98465D469EE54A465907E1
:101DE000D2080A43DB08F9E64A46141AA145924193
:101DF0005B1A52429B1A9846012686E54A465907C5
:101E0000D2080A43DB08A5E64C4623431C00631EA8
:101E10009C415BE665461E00203DEE40202C05D02F
:101E200040252D1BAB404C461C43A2465446631E26
:101E30009C4134437DE74B07C2081A435D46CB08FB
:101E4000CCE60A00024300D136E74B07C2081A432A
:101E50005D46CB0881E64A46841AA0429241CB1ADD
:101E600052429B1A98465D4601264EE54B07C20832
:101E70001A43CB08B2E64A46141AA14592415F1AAA
:101E80005242BA1A904612026BD54A46841AA042B0
:101E90009241CB1A52429B1A98465D4664E54B0725
:101EA000C2081A435D46CB0898E64B07C2081A439E
:101EB000CB084FE60A00024390D04A465C07D2089E
:101EC00014438022DB081203134208D0CE081642C6
:101ED00005D1C0084907084304005D463300610F7F
:101EE000E2004907D2080A4378E64B07C2081A43C2
:101EF000CB0832E648445B18484592419846524226
:101F00009044434604001B0200D41AE642460E4B9E
:101F100001261A40904614E666461F00203EF74010
:101F2000202C05D04026361BB3404C461C43A2460D
:101F30005446631E9C413C43C8E511000023002227
:101F400032E5C046FF070000FFFF7FFFFE070000ED
:101F50004A461418844292415B1898465242904473
:101F6000E9E54246224300D1A6E6EAE54B07C2086E
:101F70001A43CB0832E600220149130014E5C0469B
:101F8000FF07000070B505000C480C03160049005F
:101F90001A035B00240B490D120B5B0D814208D024
:101FA000064900208B4203D132431000421E90416B
:101FB00070BD01202C43FBD1F2E7C046FF070000B3
:101FC0000A0030B5134C530009030500090B00202B
:101FD0005B0DD20FA34204DD0F48834202DD0F4B9D
:101FE000D01830BD8020400301430D48C01A1F287F
:101FF00008DD0C48C31AD9400B005842002AF0D122
:102000001800EEE7084CC540A446634499400B0015
:102010002B43F2E7FE0300001D040000FFFFFF7FDB
:102020003304000013040000EDFBFFFF70B500282F
:1020300016D0C317C5185D40C40F280000F04CF837
:10204000114A121A0A2816DC03002E0015339E408E
:102050000B23181AC54053052D032D0B5B0D03E010
:1020600000240023002500261B052B43E4072343FF
:102070003000190070BD0B38854053052D03002634
:102080002D0B5B0DF0E7C0461E04000010B5041ECA
:1020900010D000F021F80F4B1B1A0A2811DC0B227C
:1020A0002100121AD14015300A035B058440120B3F
:1020B0005B0D01E0002300221B05134320001900E3
:1020C00010BD22000B3882405B0512030024120B66
:1020D0005B0DF1E71E0400001C2101231B04984244
:1020E00001D3000C10391B0A984201D3000A0839A9
:1020F0001B09984201D30009043902A2105C401860
:102100007047C04604030202010101010000000003
:102110000000000070B500260C4D0D4C641BA4108F
:10212000A64209D1002603F025FA0A4D0A4C641B89
:10213000A410A64205D170BDB300EB5898470136F4
:10214000EEE7B300EB5898470136F2E7185A00085B
:10215000185A0008185A00081C5A00080300821870
:10216000934200D1704719700133F9E7F0B51E00B2
:10217000002314008BB09E4204DA802109067318F4
:102180001E002D23129A149F1370202303229F43B5
:10219000462F07D03B00453B59424B411099013A2D
:1021A000CB18109309AB049308AB0393139B0092D5
:1021B0000293109B22000193330000F0DDFC050028
:1021C000472F02D1119BDB0728D5109BEB180793F3
:1021D000462F14D12B78302B0CD100220023200065
:1021E0003100FEF733F9002804D10123109A9B1A1D
:1021F000139A1360139B079A1B68D3180793002246
:10220000002320003100FEF721F9002801D0079BB0
:1022100009933022099B07998B4206D32800099B1A
:10222000159A5B1B13600BB0F0BD591C09911A7015
:10223000F0E7F0B5831C87B0039305000C002B2357
:102240000270002901DA4C4202336B70092C31DD37
:102250000A2704ABDE1D200039000196FEF7E0F8E6
:10226000013E30312000317039000294FDF7F2FF59
:10227000029B0400632BEEDC019B30349A1E13009A
:102280000399147004A8073098420ED804AB0733A2
:1022900000209A4204D804AB0930C018019BC01A30
:1022A000039B1818401B07B0F0BD18780133087065
:1022B0000131E7E73023E418AB70281DEC70F1E73B
:1022C000F0B595B00C0008921A9D0993070001F033
:1022D00071FA036818000B93FDF716FF00231293A1
:1022E000237E07221E0023680D900C930C992B6807
:1022F000C90547D59B1893431A0008322A601A680B
:102300005B68A264E3640122A36CE56C0A936B0032
:102310005B080E930A98A84B0E995242FFF732FEC3
:10232000002831D10122A44B0A980E995242FEF79F
:102330009DF8002828D10022002329000A98FEF7E2
:102340008BF8002803D023002D2243331A709B4DB5
:10235000472E00D99A4D03230C9A236101339A43E7
:10236000002322600A93099B210000933800089BF8
:1023700013AA00F0F3F9431C00D09EE00120404274
:1023800015B0F0BD0733B6E70A9A2B0010002900FC
:10239000FFF7F8FD00280AD0002D03DA23002D22D4
:1023A00043331A70874D472ED5D9874DD3E7202266
:1023B0003100636891430E915A1C47D10733636023
:1023C00080230C9ADB0013430022069212AA059286
:1023D00011AA0392232208A923600193636852186B
:1023E0000292009338002B000A9A0496FFF7BEFE73
:1023F0000E9B05001199472B08D1CB1C02DB6368AB
:10240000994246DD3300023BDBB21E00652E24D824
:1024100020003200013950301191FFF70AFF129A63
:102420000A9013182361012A02DC2268D20701D521
:1024300001332361232308AA9B181B78002B00D1AA
:1024400091E723002D2243331A708CE70E9A472A16
:10245000B6D1002BB4D10133B1E7662E1BD163682E
:1024600000290DDD2161002B02D12268D20702D59F
:10247000013359182161119BA36500230A93D9E701
:10248000002B03D101222168114200D09A1C226145
:10249000F1E767231E00119B129A934206DB226824
:1024A0002361D207E7D501332361E4E70121002B43
:1024B00001DC4918C91A5218E9E72268530508D403
:1024C00023692A0038000899099DA847431C29D18F
:1024D00054E7652E00D8ECE0A06CE16C00220023EC
:1024E000FDF7B4FF002834D001233800374A08999B
:1024F000099DA847431C00D140E7119B129A9342C3
:1025000002DB2368DB070DD5099D38000D9B0B9A74
:102510000899A8470025431C00D12FE7129B013BD7
:10252000AB420ADC23689B0700D514E1139BE068EB
:10253000984200DB24E7180022E72200012338003C
:102540000899099E1A32B047431C00D116E701359D
:10255000E4E7119B002B3BDC012338001B4A089960
:10256000099EB047431C00D108E7119B129A134300
:1025700002D12368DB07D5D50D9B38000B9A08994B
:10258000099EB047431C00D1F8E600230A93119B33
:102590000A9A5B42934201DC129B92E722000123DC
:1025A00038000899099E1A32B047431C00D1E5E66D
:1025B0000A9B0133EAE7C046FFFFEF7F145600088D
:1025C000185600081C56000820560008245600081B
:1025D000129AA36D0A929A4200DD0A930A9B002B7D
:1025E0003DDC00230E930A9BDB43DB170F93A36DA7
:1025F0000F9A0C930A9B13400C9AD31A0E9A93428B
:1026000036DC119B129A934240DB2368DB073DD4F2
:10261000129A0C9B1199D31A521A0A929A4200DD0F
:102620000A930A9B002B3ADC0A9B0025DB43DB174D
:102630000B93119A129B0B999B1A0A9A0A409B1AA8
:10264000AB4200DC6EE72200012338000899099EA6
:102650001A32B047431C00D190E60135E9E70A9BE6
:102660002A0038000899099EB047431CB9D185E675
:102670002200012338000899099E1A32B047431CF2
:1026800000D17BE60E9B01330E93B0E70D9B380023
:102690000B9A0899099EB047431CB9D16EE60C9B72
:1026A0003800EA1808990A9B099DA847431CBBD12A
:1026B00064E6129B012B02DC01231A4238D001236D
:1026C0002A0038000899099EB047431C00D155E6FE
:1026D0000D9B38000B9A0899099EB047431C00D106
:1026E0004CE6A06CE16C00220023FDF7AFFE002851
:1026F0001CD1129B6A1C013B38000899099DA84710
:10270000431C0FD13AE62200012338000899099EA4
:102710001A32B047431C00D130E60135129B013B11
:10272000AB42F0DC22000A9B5032CBE60025F5E7F5
:102730002A00E1E72200012338000899099E193296
:10274000B047431C00D119E60135E368139A9B1A80
:10275000AB42EFDCEAE60025F7E7C046F7B5150027
:1027600001938A680B690C000090934200DA130011
:1027700022002B6043321278002A01D001332B60F3
:1027800023689B0602D52B6802332B602268062340
:1027900017001F401A4227D0230043331B785A1ECC
:1027A00093412268920630D4220001990098089E35
:1027B0004332B047431C25D0062320682A68E168CD
:1027C00000250340042B03D18D1AEB43DB171D407A
:1027D000A3682269934201DD9B1AED180027BD42D0
:1027E00020D1002010E00137E3682A689B1ABB4221
:1027F000D2DD2200012301990098089E1932B047CA
:10280000431CF0D101204042FEBD3020E11843318D
:10281000087021005A1C45310978A218433202334E
:102820001170C1E72200012301990098089E1A3215
:10283000B047431CE6D00137D1E70000F0B58BB0BC
:1028400006920A0043320793059004920A7E0C0018
:10285000109B782A06D8622A08D8002A00D1C0E046
:10286000582A52D026004236327022E010006338D7
:102870001528F7D8FDF75AFC16001F00F6FFF6FFE3
:10288000F6FFF6FF1F00F6FFF6FFF6FFF6FFA800C3
:1028900036009A00F6FFF6FFB900F6FF3600F6FFA5
:1028A000F6FF9E0026001A684236111D1960136853
:1028B00033700123A7E0086819680A1D05060BD5C7
:1028C0000D681A60002D03DA2D23049A6D421370EF
:1028D000614B0A27039332E00D681A604106F1D577
:1028E0002DB2EFE70D681968081D18602E0601D596
:1028F0000D6803E06D06FBD50D68ADB2564B0A2797
:1029000003936F2A17D1082715E045310A70524A00
:1029100003921A68216820CA1A60080650D5CB07AE
:1029200002D52023194321601027002D03D1202335
:1029300022689A4322602300002243331A7063689E
:10294000A360002B03DB0422216891432160002D4A
:1029500002D1049E002B0CD0049E28003900FDF704
:1029600075FC039B013E5B5C33702B0005009F42AE
:10297000F3D9082F09D12368DB0706D563682269DC
:10298000934202DC3023013E3370049B9B1B236186
:10299000079B210000930598069B09AAFFF7DEFE1E
:1029A000431C35D1012040420BB0F0BD2022096804
:1029B0000A4322602200782145321170274AA7E796
:1029C0004806ACD5ADB2AAE71A680D68101D496972
:1029D000186013682E0601D5196002E06D06FBD55C
:1029E00019800023049E2361D2E71A68111D196023
:1029F000166800213000626800F0EAFE002801D06D
:102A0000801B6060636823610023049A1370BFE732
:102A10002369320006990598079DA847431CC1D039
:102A200023689B0715D4099BE0689842BCDA18001C
:102A3000BAE72200012306990598079E1932B0478C
:102A4000431CAFD00135E368099A9B1AAB42F0DC16
:102A5000E9E70025F7E7C046265600083756000884
:102A6000F0B506000D69336987B000200291AB42D2
:102A70006BDB0B00013DAC00143305931B19039372
:102A80003300143301931C19039B27681B6838001B
:102A90000093013319000493FDF752FB049B00904F
:102AA0009F4229D300239C460198059F049308CF99
:102AB000009A99B251431B0C534361440A0C9B1872
:102AC0001A0C0593036894469AB2049B89B2D218F3
:102AD0000368521A190C6B469B8ACB1A11145B18A7
:102AE000191492B21B041A43039B049104C0BB4205
:102AF000DDD22368002B2ED03000029901F002F9BC
:102B0000002821DB30000024009B02990133009350
:102B100014301431026808C992B214199AB2A21A78
:102B200004681B0C240CE31A14141B191C1492B215
:102B30001B04134308C0039B8B42EBD2019AAB00EA
:102B4000D3181A68002A10D0009807B0F0BD236887
:102B5000002B04D1013D019B043CA342F7D3356116
:102B6000CAE71A68002A04D1013D019A043B9A423F
:102B7000F7D33561E8E70000F0B59DB0029203930A
:102B8000029B039C0A930B94446A0700259D002C2A
:102B90000ED1102000F012FE021E786204D1EA214C
:102BA000C04BC14801F08EFA446084600460C46088
:102BB0007B6A196800290AD05A68012393404A6049
:102BC0008B60380000F05CFE00227B6A1A60039B79
:102BD000002B21DA01232B60039B5B005B080B9326
:102BE0000B9DB24B2A0018931A409A4217D1B04B52
:102BF000249A28031360029B000B184301D100F0B4
:102C0000C3FDAC48269B0590002B02D0AA4B269A08
:102C1000136005981DB0F0BD00232B60E0E70A9B10
:102C20000B9C129313941298139900220023FDF722
:102C30000DFC041E0BD00123249A13609F4B269A8F
:102C40000593002AE5D09E4A26990A60E1E71AAB6F
:102C500001931BAB00933800129A139B01F006F905
:102C60006E000490760D00D17CE012981399139BAE
:102C7000944A1B031B0B1A431100934B1694F6182E
:102C80000022924BFEF7ECFD914A924BFEF77CFB43
:102C9000914A924BFDF708FC040030000D00FFF74D
:102CA000C5F98F4A8F4BFEF76FFB02000B00200027
:102CB0002900FDF7F9FB04000D00FFF781F9002260
:102CC0000290002320002900FDF7C6FB00280BD04E
:102CD0000298FFF7ABF92B002200FDF7B7FB434248
:102CE0005841029B1B1A029301231593029B162B3A
:102CF0000FD812981399DA007B4B9B181A685B68FF
:102D0000FDF7AAFB002849D0029B013B0293002358
:102D100015931A9B9E1B002308933300013B0D93D0
:102D200004D501239B1B089300230D93029B002BCA
:102D300036DB029A0D9B944663440D930023149254
:102D40000E93229B0124092B62D8052B02DD00245F
:102D5000043B2293229B981E032862D8FDF7DCF9DE
:102D6000293634561A9B1B9A9E18604BF218202A5B
:102D70000FDD40239B1A9D405D4B0298F318D8400D
:102D80002843FFF783F901235A4C013E0919169392
:102D900076E7202302989B1A9840F2E71590B8E74F
:102DA000089B029A9B1A089353420E930023149394
:102DB000C7E700230F93239B002B36DC01231A0067
:102DC0000C93069323920DE00123F3E70023239A4B
:102DD0000F939446029B63440C9301330693002B9C
:102DE00000DC01230022786A4260043215001435A9
:102DF00041689D421DD9380000F0FEFC0590002876
:102E00001BD1D52102003C4B4900CAE60123DEE775
:102E100000230F942293013B0C930693002213335B
:102E2000D0E701230F93023BF6E7239B0C93069315
:102E3000D8E7013141605200D8E77B6A059A1A60F1
:102E4000069B0E2B00D9EBE0002C00D1E8E0029BA2
:102E5000002B68DD1A000F21234B0A40D2009B187B
:102E60001D685E68029B1C1102231093029BDB0508
:102E70000BD5224B0C401A6A5B6A12981399FDF726
:102E80007DFE03230A900B9110931C4B0793002C9B
:102E900036D10A980B992A003300FDF76FFE0A908D
:102EA0000B915CE0555600086C5600080000F07F5E
:102EB0000F270000515600085456000824560008F9
:102EC000255600080000F03F01FCFFFF0000F83F1E
:102ED00061436F63A787D23FB3C8608B288AC63F20
:102EE000FB799F501344D33F685700083204000019
:102EF00012040000000010FECB56000840570008E6
:102F000001231C420BD0109B280001331093079B18
:102F100031001A685B68FEF737FA05000E00079B60
:102F200064100833B2E702231093029B002B16D0E3
:102F3000129813995C420F23B54A2340DB00D31843
:102F40001A685B68FEF720FA012600230A900B91AD
:102F5000B04D2411002C00D094E0002B9FD1159B84
:102F6000002B00D19BE00A9C0B9D00222000290031
:102F7000A94BFDF771FA002800D190E0069B002BC9
:102F800000D18CE00C9B002B46DD029B0022200030
:102F900029005E1EA14BFEF7F7F9109B0A900B91DA
:102FA000013310930C9B10980A9C0B9D0793FFF71D
:102FB0003DF822002B00FEF7E7F90022984BFDF7C1
:102FC00073FA10901191109A119B0A920B93954AE3
:102FD000119B9446634417930B93079B002B61D17D
:102FE000002220002900904BFEF73AFC0A9A179B1A
:102FF00004000D00FDF744FA002800D0B5E28B482C
:103000001199844661440B00200029000A9AFDF7BB
:1030100023FA002800D0A5E2129B139C0A930B947C
:103020001B9B002B00DA71E1029A0E2A00DD6DE194
:10303000774BD2009B185C681B6808930994239B0C
:10304000002B00DBF6E0069B002B00DDF2E000D059
:1030500088E2089809990022734BFEF795F90A9ABD
:103060000B9BFDF717FA069E3500002800D05FE2A3
:10307000059B059A0133079331231370029B01339B
:1030800002935AE2344207D0109B013310932A680E
:103090006B68FEF779F93300641008355AE7029E31
:1030A000069B80E7079B0F995A1E594BD2009B182D
:1030B0001A685B68002951D000205D49FDF75EFD6C
:1030C0000A9A0B9BFEF7CCFB059A059B944610933E
:1030D000079B0A900B916344199329002000FEF787
:1030E0006FFF1790FEF7A2FF02000B0020002900DF
:1030F000FEF7B6FB109B109A01330793179B040051
:10310000303313700A9A0B9B0D00FDF7A5F90028C8
:1031100075D122002B0000203F49FEF7A1FB0A9A3F
:103120000B9BFDF799F9002800D0D1E0199B079A75
:10313000934200D170E70A980B990022374BFEF7B3
:1031400023F9364B0A900B91002220002900FEF74C
:103150001BF9079B04000D001093BEE70A980B991A
:10316000FEF712F9059A059B94460A93079B109067
:1031700011916344199329002000FEF721FF179055
:10318000FEF754FF02000B0020002900FEF768FB49
:10319000179B0A9A303313701300199A01330400F5
:1031A0000D000A9393422CD110981199059A079B10
:1031B00094466344002207931D4BFDF775F9020006
:1031C0000B0020002900FDF75BF9002800D07FE00C
:1031D000109A119B00201649FEF742FB02000B00DB
:1031E00020002900FDF738F9002800D114E7079BDB
:1031F0001A00013A07921278302AF8D00793029603
:1032000054E00022054BFEF7BFF804000D00B2E7C2
:1032100068570008405700080000F03F00002440B5
:1032200000001C400000C0FC000014400000C07CF6
:103230000000E03F069B059E013B9B190A9C0B9DED
:103240000A93089A099B20002900FDF797FCFEF7D6
:10325000B7FE0690FEF7EAFE089A099BFEF794F87F
:1032600002000B0020002900FEF7FAFA3300069A4C
:10327000013630321A700A9A07969A4239D1020002
:103280000B00FDF711F9089A099B04000D00FDF7EA
:10329000F7F800281BD1089A099B20002900FDF7A8
:1032A000D5F8002802D0069BDB0710D4380004991B
:1032B00000F0E6FA0023079A02981370249B01306D
:1032C0001860269B002B00D1A3E41A60A1E4029EA3
:1032D000079B0793013B1A78392A06D1059A9A422F
:1032E000F7D13022059901360A701A7801321A7026
:1032F00085E70022AD4BFEF747F8002200230400CB
:103300000D00FDF7A3F800289BD0CFE70F9A002A05
:1033100000D182E0229A012A66DC169A002A5FD048
:10332000A34A9B180E9E089C089A0121D218089265
:103330000D9A3800D3180D9300F052FB0500002CB5
:103340000EDD0D9B002B0BDD0D9A2300944200DD5A
:103350001300089AE41AD21A08920D9AD31A0D9300
:103360000E9B002B1FD00F9B002B5AD0002E11DD7F
:1033700029003200380000F0F9FB049A0100050032
:10338000380000F043FB04990790380000F078FA09
:10339000079B04930E9B9A1BB34204D038000499F8
:1033A00000F0E4FB04900121380000F019FB149BAD
:1033B0000600002B37DD1A000100380000F0D6FBB4
:1033C000229B0600012B33DD00230793336903336F
:1033D0009B00F318586800F0BBFA2023181A3FE04E
:1033E00036231A9A9B1A9DE7069B5E1E0E9BB342DC
:1033F00008DB9E1B069B002B0CDA089B069A9C1A86
:10340000002391E70E9B149AF31AD3180E96149387
:103410000026EFE7089C069B86E70E9E089C0F9D02
:103420008DE70E9ABAE700230793229B012B13DC4A
:10343000002307930A9B002B0ED10B9B1B030BD180
:10344000189B0B9A134207D0089B013308930D9BDE
:1034500001330D9301230793149B0120002BB5D159
:103460000D9B1F22181803001340104246D0013252
:10347000D21A042A3FDD1C22D31A089AE418D21863
:1034800008920D9AD3180D93089B002B05DD1A00A6
:103490003800049900F0C6FB04900D9B002B05DD5D
:1034A00031001A00380000F0BDFB0600159B002B10
:1034B00026D03100049800F025FC002820DA029B79
:1034C0000A22013B029338000023049900F0FCF922
:1034D0000F9B0490002B00D160E1002329000A22F9
:1034E000380000F0F1F90C9B0500002B47DC229B13
:1034F000022B0DDC43E0042AC6D013001C33BCE7CA
:10350000069B002B35DC229B022B32DD069B0C93A5
:103510000C9B002B0CD131000522380000F0D4F9AF
:1035200006000100049800F0EDFB002800DD9FE597
:10353000239BDB430293059B079300243100380053
:1035400000F09EF9002D00D1B0E6002C05D0AC4271
:1035500003D02100380000F093F92900380000F072
:103560008FF9A3E600263500E2E70296079E3500B4
:103570007EE50F9B002B00D1C8E0069B0C93002C2E
:1035800005DD29002200380000F04CFB0500079BF8
:103590002800002B1FD03800696800F02DF9041EA8
:1035A0000CD10200034B0449FFF7FBFA0000244052
:1035B00033040000CB560008EA02000029002B6902
:1035C0000C319A1C92000C3000F00DF90122210000
:1035D000380000F027FB2C000500059B0893310004
:1035E0000498FFF73DFA0300210030330E90049851
:1035F000069300F087FB2A000F903100380000F09E
:103600009DFBC3680790109301230D93109B002B23
:1036100004D10100049800F075FB0D903800079963
:1036200000F02EF901230A980D9A1840089B0133E7
:103630000793229B134303430CD1069B392B25D0C0
:103640000F9B002B02DD0E9B31330693089B069ADD
:103650001A7073E70F9B002B03DB229A134303437B
:103660001FD10D9B002BF1DD04990122380000F0E1
:10367000D9FA3100049000F045FB002803DCE5D1C5
:10368000069BDB07E2D5069B392BDCD13923089A50
:103690001370079B0793013B1A78392A6CD00132CB
:1036A000D6E70D9B002B07DD069B392BEED0069B42
:1036B000089A0133137041E7089B069A1A70012398
:1036C000059A9B1A089A9B180C9A9A423ED000239E
:1036D0000A220499380000F0F7F8002304900A2227
:1036E00021003800AC4206D100F0EEF804000500DD
:1036F000079B089373E700F0E7F829000400002314
:103700000A22380000F0E0F80500F1E7069B0C9370
:10371000002431000498FFF7A3F9059B30301855B9
:103720000C9B01340690A34207DD00230A223800D7
:10373000049900F0C9F80490EBE70C9B0120002BE2
:1037400000DD18000024059B1B1807930499012233
:10375000380000F067FA3100049000F0D3FA002836
:1037600097DC02D1069BDB0793D4079B0793013BB1
:103770001A78302AFAD0E1E6059A9A428AD1029B59
:1037800001330293312395E7084B269A0593084BA2
:10379000002A01D0FFF73BFAFFF73BFA0C9B002B06
:1037A000B6DC229B022B00DDB2E6B1E748560008EA
:1037B00050560008004870475401002010B5034BD4
:1037C0000100186800F00EFC10BDC046000000208B
:1037D000C9B28218904201D10020704703788B4211
:1037E000FBD00130F6E7002310B59A4200D110BD9E
:1037F000CC5CC4540133F8E770B5456A06000C0090
:10380000002D0ED11020FFF7D9FF021E706204D1E7
:103810006621194B194800F055FC4560856005602C
:10382000C560756AEB68002B13D0736AA200DB6871
:103830009B181868002818D101210D00A5406A1DA9
:103840003000920000F076FB00280CD044608560C8
:103850000DE021220421300000F06CFB736AE86067
:10386000DB68002BE1D1002070BD02681A600023E4
:103870000361C360F8E7C04655560008DC560008EF
:1038800070B5466A05000C00002E0ED11020FFF71F
:1038900095FF021E686204D18A21094B094800F095
:1038A00011FC466086600660C660002C07D06B6A1B
:1038B0006268DB6892009B181A6822601C6070BD09
:1038C00055560008DC560008F7B50E0001900C00B4
:1038D0001D0000200F6914363368013099B251433E
:1038E0001B0C534349190D0C5B191D0C89B21B04A9
:1038F0005B1808C68742EFDC002D22D0A368BB42CC
:1039000019DC63680198591CFFF776FF061E05D184
:103910000200B5210C4B0D4800F0D4FB21002369B7
:103920000C319A1C92000C30FFF75DFF21000198CA
:10393000FFF7A6FF34003B1D9B00E3185D607B1C76
:1039400023612000FEBDC046CB560008DC560008AF
:103950000300020C0020824201D11B0410301A0E19
:1039600001D108301B021A0F01D104301B019A0F3C
:1039700001D102309B00002B03DB01305B0000D43F
:1039800020207047036802000721180008400B42FE
:103990000DD0063900200B4205D10230034203D07E
:1039A000CB400800136070479B081360FBE799B297
:1039B000002901D110201B0CD9B2002901D10830F7
:1039C0001B0A190701D104301B09990701D10230E4
:1039D0009B08D907E9D401305B08E6D12020E2E753
:1039E00010B50C000121FFF707FF002806D1A02128
:1039F0000200044B0448490000F064FB01234461C9
:103A0000036110BDCB560008DC560008F0B50B6909
:103A1000140012690D0089B0934201DA25000C00F0
:103A20002F6926696968BB190293AB68BA1993427A
:103A300000DA0131FFF7E0FE0190002806D15E2197
:103A40000200484B4848FF3100F03CFB019B00223C
:103A500014339C46BB199B0063440393634603994C
:103A60008B422CD32B0022001433BF001432069358
:103A7000B600DB19049393190793042305932B00D5
:103A8000049915330092994205D34B1B153B9B08B3
:103A900001339B000593079B009A9A4211D3029B26
:103AA000002B06DD039B043B03931B680093002B54
:103AB00054D0019B029A18001A6109B0F0BD04C3EA
:103AC000CDE7009B1B6898B200281CD067460024F5
:103AD000069E02CE3A688BB24343090C414392B230
:103AE0009B181B190C003A68110C61181C0C091961
:103AF0000C0C9BB209040B4308C7049BB342E8D8E3
:103B00006346059A9C50009B1B681E0C20D06346A0
:103B10002C00604600271B68143422689BB291B2C7
:103B200071430268120C8918CF1939040B430360E2
:103B300002CC4368090C71439BB23F0CCB18049A2A
:103B4000DB191F0C0430A242E7D862460599535096
:103B5000009B0433009304239C449CE7029B013B9D
:103B600002939CE7CB560008DC560008F7B5032308
:103B7000150007000E001A401D4208D02549013AE1
:103B80009200525800233100FFF79EFE0600AD1050
:103B90003DD07C6A002C0FD11020FFF70FFE021ED3
:103BA000786205D1D7211C4B1C48490000F08AFAE5
:103BB000446084600460C4607B6A9C680193002C4C
:103BC00008D138001649FFF70BFF019B04009860ED
:103BD0000023036001231D420AD031002200380077
:103BE000FFF714FF310001903800FFF749FE019EF6
:103BF0006D100CD02068002807D122002100380069
:103C0000FFF704FF0023206003600400E2E73000B8
:103C1000FEBDC0463058000855560008DC56000866
:103C200071020000F0B50C0017002369551187B030
:103C3000EB180293013301934968A3680490019A39
:103C4000934211DB0498FFF7D7FD020000231432E2
:103C500006001100039298420DD1DA210200274B91
:103C60002748FF3100F02EFA01315B00E7E7002220
:103C700098000A500133AB42F9DBEB43DB171D40E0
:103C8000039BAD001F2138005D1923002269143306
:103C90009200084084469A180F422AD00131091A2E
:103CA00005910021039567461868B84001430398C1
:103CB00002C002CB03900598C1409A42F3D820007D
:103CC00015300423824204D3131B153B9B08013398
:103CD0009B00E950002902D0029B02330193019B13
:103CE0000498013B21003361FFF7CAFD300007B0A3
:103CF000F0BD02CB02C59A42FBD8F0E7CB560008D4
:103D0000DC56000802690B6930B50400D01A9A42EB
:103D10000DD19B0014341431E218C918043A043947
:103D200015680B689D4203D001209D4203D330BD2E
:103D30009442F3D3FBE74042F9E70000F0B50E00F0
:103D400007001100300087B01400FFF7DBFF051EED
:103D500010D101003800FFF74FFD021E04D1404B87
:103D60004049414800F0AEF901234561036110006C
:103D700007B0F0BD01230193002804DB23003400C9
:103D80001E000023019338006168FFF735FD021E15
:103D900003D19021324B8900E3E7019B0027C360E8
:103DA000206914340194019B84001B193400029390
:103DB00033691434990063180393130014339C4639
:103DC0000593019B0493049B02CC20CB0493ABB2DC
:103DD000DF198BB2FB1A2D0C090C691A1D14491935
:103DE0000F149BB209040B43614608C1039B8C4628
:103DF000A342E8D83100039C153104238C4204D33C
:103E0000A31B153B9B0801339B000199CC18059916
:103E10002600CB189C4602998E4210D3029EE51EC6
:103E20000021AE4204D331000331091B8908890007
:103E30005B18043B196800290FD0106197E702CE88
:103E40008DB2ED190F0C291479180F14ADB20904B5
:103E50000D43614620C18C46DDE70138E9E7C046E5
:103E6000CB56000832020000DC560008F7B50121ED
:103E700014001E00089FFFF7BFFC051E05D10200BD
:103E8000264B2749274800F01DF9330376001B0B0A
:103E9000760D24D10193002C27D068460094FFF7BB
:103EA00071FD009C00281ED0019B20211A00091AD8
:103EB0008A40C34022436A610193019CAC61631E46
:103EC0009C4101342C61002E18D0174BF618352375
:103ED0003618181A099B3E6018602800FEBD802223
:103EE00052031343D6E76C61E7E701A8FFF74AFDE9
:103EF0000124019B2C616B612030E4E70B4BC0185F
:103F00000B4B3860E3189B00EB185869FFF720FD56
:103F10006401099B241A1C60DFE7C046CB560008E9
:103F20000A030000DC560008CDFBFFFFCEFBFFFFBD
:103F3000FFFFFF3F4A4370B51100150000F052F833
:103F4000041E03D02A000021FEF708F9200070BDEE
:103F500070B50500002910D00C1F2368002B00DA73
:103F6000E418280000F0EEF81D4A1368002B05D174
:103F700063601460280000F0EDF870BDA34208D91A
:103F8000216860188342F3D118685B68411821608A
:103F9000EEE71A005B68002B01D0A342F9D9116843
:103FA0005018A0420BD120680918501811608342A4
:103FB000E0D118685B68411811605360DAE7A042ED
:103FC00002D90C232B60D5E721686018834203D106
:103FD00018685B684118216063605460CAE7C04696
:103FE000F0010020F8B50323CD1C9D4308350600E1
:103FF0000C2D1FD20C25A9421ED8300000F0A2F8CB
:1040000025490A681400002C1AD1244F3B68002B64
:1040100004D12100300000F043F83860290030005E
:1040200000F03EF8431C2BD10C233000336000F02D
:1040300091F803E0002DDEDA0C2333600020F8BD98
:1040400023685B1B19D40B2B03D92360E41825606C
:1040500003E06368A2420ED10B60300000F07AF8F2
:10406000200007220B30231D9043C21A9842E6D04D
:104070001B1AA350E3E75360EFE722006468C2E72E
:104080000323C41C9C43A042E1D0211A300000F05D
:1040900007F8431CDBD1C7E7F0010020F401002042
:1040A000002370B5064D040008002B6000F0B2FF3D
:1040B000431C03D12B68002B00D0236070BDC04689
:1040C000FC01002030B514001A00094B05001B68E4
:1040D00085B0D868074B002C01D1074B1C00019319
:1040E00000912B000549029400F00AF800F078FADC
:1040F000000000203C580008775800084958000884
:104100000EB403B5010003AB044804CB006801936F
:1041100000F050F802B008BC03B0184700000020BF
:1041200082B0002900D101A9101E06D0002B06D0B4
:1041300013780B601078431E984102B0704702203C
:104140004042FAE710B5024800F021FC10BDC0461D
:104150000402002010B5024800F01AFC10BDC04651
:1041600004020020936810B5013B9360002B04DA31
:104170009469A34207DB0A2905D01368581C106014
:104180001970080010BD00F04FF90100F9E7F8B50B
:1041900006000F001400D518AC4201D1002007E042
:1041A00021783A003000FFF7DDFF0134431CF3D1E2
:1041B000F8BD0000F0B5A1B006000C001F0003928E
:1041C000002804D08369002B01D100F03FFB8E4B07
:1041D0009C421CD17468636EDB0705D4A3899B05E0
:1041E00002D4A06D00F0D3FBA3891B0702D523697D
:1041F000002B1DD12100300000F07AF9002817D0E3
:10420000636EDB070DD50120404221B0F0BD7F4B2E
:104210009C4201D1B468DEE77D4B9C42DBD1F4685F
:10422000D9E7A3899B05EED4A06D00F0B1FBEAE7C6
:10423000002308AD6B6120336B761033AB760797A4
:10424000039F3B78002B01D0252B4ED1039BFB1AFB
:104250000593039B9F420DD0059B21003000039ADC
:10426000FFF795FF431C00D1B5E06A69059B9446B2
:1042700063446B613B78002B00D1ACE001227B1CD6
:104280000393002352426A6004A9543252182B60EF
:10429000EB60AB601370AB65039B052219785D483A
:1042A000FFF796FA039B5F1C002820D12A68D306EB
:1042B00004D5532304A95B1820211970130704D5D2
:1042C000532304A95B182B211970039B1B782A2BFD
:1042D00016D00021EB68039F3A78781C303A844668
:1042E000092A4FD9002911D117E00137A9E7494B15
:1042F0002A68C01A0123834013432B600397CBE73E
:10430000079B191D1B680791002B01DB0B9304E031
:104310005B42EB60022313432B603B782E2B0AD1C8
:104320007B782A2B37D1079B02371A1D1B6807920F
:10433000002B2DDB0993032239783748FFF748FA21
:10434000002807D0344B2A68C01A40238340134307
:1043500001372B6039787B1C06223048039329767D
:10436000FFF736FA002845D02D4B002B27D1072226
:10437000079B07339343083307936B69049A9B1891
:104380006B615DE70A214B4367469B180939A3E738
:1043900001235B42CEE700231A0001376B603978B6
:1043A000781C30398446092903D9002BC3D00992DF
:1043B000C1E70A235A4367465218093BEFE707ABA8
:1043C0000093220029003000164BFDF779FF04907E
:1043D000049B0133D1D1636EDB0705D4A3899B0510
:1043E00002D4A06D00F0D4FAA3895B0600D50AE7D9
:1043F0000D980AE707AB0093220029003000094B13
:10440000FEF71CFAE3E7C046B4590008D459000887
:104410009459000882580008885800088C580008F1
:10442000C12200088F410008F8B505000E001400F5
:10443000002804D08369002B01D100F007FA224B39
:104440009C422ED16C68A369A360A3891B0732D557
:104450002369002B2FD023682269F7B2981A636969
:10446000F6B2834205DC2100280000F04DF9002857
:1044700027D1A3680130013BA36023685A1C226046
:104480001F706369834204D0A389DB0707D50A2E16
:1044900005D12100280000F037F9002811D13000A3
:1044A000F8BD0A4B9C4201D1AC68CCE7084B9C425A
:1044B000C9D1EC68C7E72100280000F019F80028EE
:1044C000C9D001267642EAE7B4590008D459000859
:1044D000945900080300081E05D0FF2A04D98A2237
:1044E00001201A604042704701200A70FBE700007B
:1044F000374B70B51D6806000C00002D05D0AB6968
:10450000002B02D1280000F0A1F9324B9C420FD1C0
:104510006C680C23E25E93B211072DD4D90611D436
:1045200009230120336037331343A381404270BD18
:10453000294B9C4201D1AC68EBE7284B9C42E8D167
:10454000EC68E6E75B0713D5616B002908D0230010
:104550004433994202D03000FFF7FAFC0023636332
:104560002422A3899343A3810023636023692360EA
:104570000823A2891343A3812369002B0BD1A02117
:104580008022A389890092000B40934203D021002E
:10459000300000F027FA0C22A35E01201A0099B225
:1045A000024003420FD00022A26062695242A2611F
:1045B000002022698242BAD10A06B8D540221343AC
:1045C000A3810138B3E7880700D46269A260EFE7EE
:1045D00000000020B4590008D4590008945900087C
:1045E000062010B500F06CFA012000F0E4FC000099
:1045F000F7B58B8905000C001A075FD44A68002ABA
:1046000004DC0A6C002A01DC0020FEBDE76A002FF2
:10461000FAD0002280212E682A601A0049010A403F
:104620000B4234D0606DA3895B0706D56368C01A5E
:10463000636B002B01D0236CC01A0200216A002397
:104640002800E76AB847A189431C06D12B681D2BB7
:1046500031D82C4ADA40D3072DD500236360236973
:104660002360CB0405D5431C02D12B68002B00D15D
:104670006065616B2E600029C6D0230044339942E7
:1046800002D02800FFF764FC00206063BDE701232F
:104690002800216AB847431CC5D12B68002BC2D023
:1046A0001D2B01D0162B01D12E60ADE74023A2892E
:1046B0001343A381A9E740230B43FAE70F69002FB7
:1046C000A2D00A680F60D21B019200229B0700D182
:1046D0004A69A260019B002B00DC95E73A002800A4
:1046E000019B216AA66AB047002806DC402301200E
:1046F000A28940421343A38187E7019B3F181B1AFD
:104700000193E7E7010040200B6970B505000C003C
:10471000002B02D10025280070BD002804D0836939
:10472000002B01D100F092F8144B9C421BD16C6815
:104730000C22A35E002BEDD0626ED20704D49B0541
:1047400002D4A06D00F023F928002100FFF750FFEC
:10475000636E0500DB07DED4A3899B05DBD4A06D67
:1047600000F016F9D7E7064B9C4201D1AC68DFE7B1
:10477000044B9C42DCD1EC68DAE7C046B45900082F
:10478000D459000894590008002310B504000360B0
:1047900043608360818143661900C2810361436184
:1047A000836108225C30FDF7D9FC054B6362054B41
:1047B0002462A362044BE362044B236310BDC04632
:1047C000014B0008294B0008614B00088D4B000885
:1047D00010B5024900F0BAF810BDC04609470008FC
:1047E00070B568254A1E55430E0029007431FFF745
:1047F000F9FB041E08D000212A00016046600C303D
:10480000A0606832FDF7AAFC200070BD10B5024818
:1048100000F0BDF810BDC0460802002010B50248E7
:1048200000F0B6F810BDC0460802002010B50248DE
:1048300000F0ADF810BDC0460302002010B50248DC
:1048400000F0A6F810BDC0460302002013B5040016
:10485000FFF7ECFFA369002B02D0FFF7EFFF13BDBA
:10486000A364E3642365134B134A1B68A26201939C
:10487000A34201D10123A361200000F01FF8606072
:10488000200000F01BF8A060200000F017F80022C4
:104890000421E0606068FFF777FF01220921A0682A
:1048A000FFF772FF02221221E068FFF76DFF01237C
:1048B000A361D2E710560008D1470008F8B50700F9
:1048C000FFF7A4FF1F4B1E68B369002B02D1300015
:1048D000FFF7BCFF4836B4687368013B04D5336802
:1048E000002B22D03668F6E70C22A55E002D1AD1E7
:1048F0002000154B5830E360656600F047F8FFF77D
:104900008DFF2000082229002560A56065602561D3
:104910006561A5615C30FDF721FC6563A563A56455
:10492000E5642000F8BD6834D7E704213800FFF7BC
:1049300057FF041E3060D5D1FFF770FF0C233B609A
:10494000EFE7C046105600080100FFFFF7B504006E
:1049500006000027019148346368A5680093009B16
:10496000013B009304D52468002CF5D13800FEBD2E
:10497000AB89012B08D90E22AB5E013304D029008C
:104980003000019B984707436835E8E77047704758
:104990007047000070B50E001D000E23C95E1400A4
:1049A00096B0002907DA00232B60B3891B0611D4C7
:1049B0008023DB000FE06A4600F014F90028F2DBE8
:1049C000F02301991B021940054BC9184B4259416C
:1049D0002960EDE740230020236016B070BDC0467B
:1049E00000E0FFFFF7B502268B8905000C0033427B
:1049F00006D0230047332360236101236361F7BDA1
:104A00006A4601ABFFF7C6FF009907002800FFF7D1
:104A1000E9FA002808D10C22A35E9A05EFD40322FC
:104A200093431E43A681E4E70F4BAB628023A28928
:104A300020601343A381009B20616361019B002BD5
:104A40000DD028000E23E15E00F0DEF8002806D02D
:104A50000322A38993431A0001231343A381A0894E
:104A60000743A781CBE7C046D147000870B50400D3
:104A70000D001F2904D9162303600120404270BD98
:104A8000436C002B04D08A009B181A68002A08D1B6
:104A9000200000F031F82A000100200000F01AF890
:104AA000EDE70020012AEAD0511C03D11623013082
:104AB0002360E4E7002428001C6090472000DEE724
:104AC00010B5034B01001868FFF7D0FF10BDC046BA
:104AD00000000020002370B5064D040008001100FE
:104AE0002B6000F060FA431C03D12B68002B00D030
:104AF000236070BDFC01002010B500F052FA10BD1B
:104B000070B50C000E25495F00F0A4F8002803DB07
:104B1000636D1B18636570BDA389024A1340A381AE
:104B2000F9E7C046FFEFFFFFF8B51F008B890500CE
:104B30000C001600DB0505D50E23C95E00220223FA
:104B400000F074F8A389054A28001340A3813200BD
:104B50000E23E15E3B0000F01FF8F8BDFFEFFFFF02
:104B600070B50C000E25495F00F060F8A389421C67
:104B700003D1054A1340A38170BD80225201134323
:104B8000A3816065F8E7C046FFEFFFFF10B50E2375
:104B9000C95E00F015F810BD70B5040008001100E2
:104BA0001A000023054D2B6000F019FA431C03D1B5
:104BB0002B68002B00D0236070BDC046FC01002094
:104BC000002370B5064D040008002B6000F015FAB4
:104BD000431C03D12B68002B00D0236070BDC0465E
:104BE000FC010020002370B5064D040008001100F0
:104BF0002B6000F005FA431C03D12B68002B00D07A
:104C0000236070BDFC010020002370B5064D040038
:104C100008002B6000F0F9F9431C03D12B68002B2E
:104C200000D0236070BDC046FC01002070B50400B8
:104C3000080011001A000023054D2B6000F0E7F971
:104C4000431C03D12B68002B00D0236070BDC046ED
:104C5000FC01002070B50400080011001A000023B8
:104C6000054D2B6000F0ADF9431C03D12B68002BE0
:104C700000D0236070BDC046FC010020F0B5DE46C8
:104C800057464E464546E0B58DB00AAF08239946D3
:104C9000082200213800FDF761FA1822002104A83B
:104CA000FDF75CFA424BD96A04221143D962D96AF2
:104CB0000A400392039AD96A80221143D962D96AC1
:104CC0000A400292029ADA6A01263243DA62DA6A0A
:104CD00032400192019AD96A02221143D962DB6AF9
:104CE00013400093009BA023DB059B46202398469E
:104CF0005B46414699622F4D8023DB009A46AB62AA
:104D00004B46AB620833AB62A9622B494B69F0207A
:104D10008343404603434B61284BD868284C2040CE
:104D2000D86019682140196080239B010A933E7165
:104D300000247C71BA71380000F0BCF9424604923C
:104D4000059606940794089404A9584600F016FAAC
:104D500052460492059606940794089404A92800E4
:104D600000F00CFA4A4604920596069407940894BB
:104D700004A9280000F002FA102304930596069473
:104D80000794089404A9280000F0F8F94346049316
:104D9000059606940794089404A9280000F0EEF9FB
:104DA0000DB0F0BCBB46B246A946A046F0BDC04619
:104DB00000100240000400500000014000080050B4
:104DC000FFFFFFF3F0B5CE46474680B591B01C22F9
:104DD000002109A8FDF7C2F9274B996B80208002BA
:104DE000014399639A6B02400292029ADA6A0125A2
:104DF0002A43DA62DB6A2B400193019B0426039667
:104E0000022399460493013398460593002406949F
:104E100007940896A027FF0503A9380000F0AEF913
:104E2000082303934B460493434605930694079443
:104E3000089603A9380000F0A1F9E1235B02099369
:104E40000A940B940C940C230D930E940F940B4C1A
:104E500009A9200000F0FCFA6368094A1340636066
:104E6000A3682A229343A36023682B43236011B0D5
:104E7000C0BCB946B046F0BD00100240004400403E
:104E8000FFB7FFFF10B52C4A136801218B430B437A
:104E90001360294B1B68DB07FBD528490B68284AA0
:104EA0001A4080231B0113430B60264A136801211B
:104EB0000B431360234B1B685B07FBD5214B5A68E0
:104EC00021491140802252010A435A60DA681F4981
:104ED00011408022D2030A43DA601968802252040A
:104EE0000A431A60174B1B689B01FBD5154BDA6808
:104EF000F0218A43DA60DA6815490A40DA60DA6834
:104F000014490A40DA60DA6803218A430A43DA6006
:104F10000C4BDA680C2313400C2BF9D10E4C2000FB
:104F200000F00CFB200000F019FB064AD36C0C21AA
:104F30008B43D36410BDC046002002400070004087
:104F4000FFE7FFFF00100240FFE0FFFFFFFF02FF4F
:104F5000FFF8FFFFFFC7FFFF00366E0100B583B00B
:104F60000C4B596B012211435963596B0A40019252
:104F7000019A9A6B802149050A439A639B6B0B4007
:104F80000093009BFFF77EFFFFF778FEFFF71AFF05
:104F9000FEE7C04600100240FEE7FEE7704770479C
:104FA00070470120704710B500F0DEFA1623036049
:104FB0000120404210BD10B501214942FFF7F3FF27
:104FC000FEE770B50C0016000025B54205DA00E0DA
:104FD00000BF207001350134F7E7300070BD70B5B7
:104FE00016000024B44206DA4D1C087800E000BF29
:104FF00001342900F6E7300070BD012040427047BF
:1050000080239B014B6000207047012070470020E7
:105010007047000010B503000C4A0D49521A0D49A3
:105020000968002907D00B490868C318934206D8BD
:10503000084A136010BD074907480860F3E700F00D
:1050400093FA0C23036001204042F3E70050002054
:1050500000040000F801002010020020704700004A
:105060000D4885460D480E490E4A002302E0D458EB
:10507000C4500433C4188C42F9D30B4A0B4C0023A0
:1050800001E013600432A242FBD3FFF7E7FFFDF714
:1050900041F8FFF763FFFEE700500020000000200A
:1050A000D4010020205A0008D40100200C02002066
:1050B000FEE7000010B503000079002850D01A6800
:1050C000002A57D05879012818D0022820D000286B
:1050D0000BD001209A79002A4BD0022A2CD0032A27
:1050E00034D0012A1ED0012043E023494C68944368
:1050F0004C600A681C6822430A60EBE71E49086896
:10510000904308604A68186802434A600020E1E75B
:105110001949086802430A604A68186802434A60ED
:105120000020D7E7144AD1681C68A143D1601B68EE
:1051300091680B4393601CE00F4A91681C68A1437F
:1051400091601B68D1680B43D36012E00A4A9168F2
:105150001C68214391601B68D1680B43D36008E051
:10516000054A11681C68A1431160196853688B4394
:10517000536010BD0020FCE700040140F0B50022A0
:1051800027E083682C006C4366003619B3438E68B1
:105190007443234383600C684368A343CE6874431D
:1051A00023434360C6682B006B435F00FF18FC433A
:1051B000A446BE430F695F433E43C6604C68022C61
:1051C00016D0046865462C404D686B43234303604A
:1051D00001320C682300D34026D0012393402500E0
:1051E0001D401C42F4D04B68013B012BDAD8C8E7C4
:1051F000FF2D0BD8066A1C006C4365432C01641B11
:10520000A6434C69654335430562DAE7466A2D0AD1
:105210002C006C436C4365432C01641BA6434C6912
:10522000654335434562CCE70020F0BD044BDA68A6
:1052300012090F231340034AD35CD8407047C0467D
:1052400000100240F4590008044BDA68120A0723E0
:105250001340034AD35CD8407047C0460010024058
:10526000045A0008044BDA68D20A07231340034AA1
:10527000D35CD8407047C04600100240045A000872
:1052800010B50E4BDB68DB0305D40C4B1B68DB064B
:1052900012D50B4800E00B480849CA68920C0F234E
:1052A0001340094AD35C5843CB689B0D0321194036
:1052B0000131FAF745FF10BD0448EDE70010024048
:1052C00000093D0000127A000C5A00080024F40086
:1052D00010B5174BDA680C231340082B23D009D8DC
:1052E000002B0CD0042B14D1114B1B68DB061CD5F2
:1052F000104819E00C2B0CD1FFF7C2FF14E00C4B47
:105300005A68520B07231340013380200002984053
:105310000AE0074B5A68520B0723134001338020E1
:105320000002984000E0044810BD0448FCE7C04675
:105330000010024000093D0000127A000024F40031
:1053400010B50400FFF7C4FF2060FFF76FFF606037
:10535000FFF77AFFA0606068FFF784FFE06010BD90
:1053600010B50400032803D000200C2C32D010BD4F
:105370002E4BDB6C0340020413432D4A93420FD0A3
:105380002C4A934219D02C4A934206D0FFF7A0FF33
:10539000FFF74CFFFFF766FFE7E7FFF799FFE4E74A
:1053A000224B1B680422100018401A42DDD01F4B0C
:1053B0001B68DB060CD42148D7E71C4B1A6D8023F1
:1053C0009B00100018401A42CFD080200002CCE78A
:1053D0001B48CAE7154BDB6C234024041C43194BC4
:1053E0009C420FD0184B9C4216D0184B9C4206D0C2
:1053F000FFF76EFFFFF71AFFFFF726FFB7E7FFF78C
:1054000067FFB4E7094B1B685B07B0D5074B1B6808
:10541000DB0608D40948AAE7044B1B6D9B05A6D5FB
:1054200080200002A3E70648A1E7C0460010024022
:105430000200030003000300010003000024F40045
:1054400000093D0008000C000C000C0004000C00DA
:1054500030B585B004000D000368DB0757D403683E
:105460002E4A1A404B68C9680B4329690B43A96946
:105470000B43134303604368294A1340AA6813434C
:1054800043608368274A13406A6913438360264B4D
:1054900098420AD0254B98421DD0254B98421ED0E9
:1054A000244B984220D0012032E00320FFF758FF20
:1054B00000282FD0296800292ED0AA6980231B023A
:1054C0009A4216D04B08C018FAF73AFE0004000CB6
:1054D000E06000201CE00C20FFF742FFE8E7684690
:1054E000FFF72EFF0298E3E76846FFF729FF0298CF
:1054F000DEE740004B08C018FAF722FE0E4B0340CF
:105500004008072210401843E060002000E001201E
:1055100005B030BD0120FBE70120F9E7F369FFEF9B
:10552000FFCFFFFFFFFCFFFF0038014000440040B9
:10553000004C004000500040F0FF000010B5FA2180
:105540008900FAF7FDFD0138034B586000229A608C
:1055500005321A6010BDC04610E000E0014B186033
:105560007047C046D0010020014B18687047C04604
:1055700000000020F8B5C046F8BC08BC9E46704745
:0C558000F8B5C046F8BC08BC9E46704759
:10559000E40D00084C0C00082A0C00083E0D000821
:1055A0002A0C0008820D00082A0C00083E0D000895
:1055B0004C0C00084C0C0008820D00083E0D000841
:1055C000F00C0008F00C0008F00C0008900D00082A
:1055D0001C1500084A1400084A1400084614000864
:1055E00050140008501400083C1700084614000826
:1055F000501400083C170008501400084614000816
:10560000DA160008DA160008DA160008A6170008ED
:1056100004000020494E4600696E66004E414E006F
:105620006E616E0030003031323334353637383900
:105630004142434445460030313233343536373801
:105640003961626364656600496E66696E69747982
:10565000004E614E005245454E54206D616C6C6F9A
:105660006320737563636565646564002F627569A3
:105670006C642F676E752D746F6F6C732D666F720F
:105680002D73746D33325F392D323032302D7132DB
:105690002D7570646174652E3230323031303031A6
:1056A0002D313632312F7372632F6E65776C6962DC
:1056B0002F6E65776C69622F6C6962632F737464F7
:1056C0006C69622F64746F612E630042616C6C6F51
:1056D0006320737563636565646564002F62756933
:1056E0006C642F676E752D746F6F6C732D666F729F
:1056F0002D73746D33325F392D323032302D71326B
:105700002D7570646174652E323032303130303135
:105710002D313632312F7372632F6E65776C69626B
:105720002F6E65776C69622F6C6962632F73746486
:105730006C69622F6D707265632E6300000000005B
:105740000080E03779C34143176E05B5B5B893467D
:10575000F5F93FE9034F384D321D30F94877825A49
:105760003CBF737FDD4F1575000000000000F03F67
:10577000000000000000244000000000000059402C
:105780000000000000408F40000000000088C3407F
:1057900000000000006AF8400000000080842E41F4
:1057A00000000000D01263410000000084D7974140
:1057B0000000000065CDCD41000000205FA0024246
:1057C000000000E876483742000000A2941A6D42BB
:1057D000000040E59C30A2420000901EC4BCD642AE
:1057E00000003426F56B0C430080E03779C3414359
:1057F00000A0D8855734764300C84E676DC1AB43CF
:10580000003D9160E458E143408CB5781DAF1544EC
:1058100050EFE2D6E41A4B4492D54D06CFF08044C7
:10582000F64AE1C7022DB544B49DD9794378EA44DC
:1058300005000000190000007D0000002C206675A6
:105840006E6374696F6E3A20006173736572746978
:105850006F6E2022257322206661696C65643A2090
:1058600066696C6520222573222C206C696E652088
:105870002564257325730A004300504F534958008F
:105880002E00232D302B2000686C4C006566674588
:1058900046470000202020202020202020282828E3
:1058A00028282020202020202020202020202020E8
:1058B0002020202088101010101010101010101030
:1058C0001010101004040404040404040404101050
:1058D00010101010104141414141410101010101ED
:1058E0000101010101010101010101010101011099
:1058F00010101010104242424242420202020202C2
:105900000202020202020202020202020202021069
:105910001010102000000000000000000000000037
:105920000000000000000000000000000000000077
:105930000000000000000000000000000000000067
:105940000000000000000000000000000000000057
:105950000000000000000000000000000000000047
:105960000000000000000000000000000000000037
:105970000000000000000000000000000000000027
:105980000000000000000000000000000000000017
:105990000000000000000000000000000000000007
:1059A00000000000000000000000000000000000F7
:1059B00000000000000000000000000000000000E7
:1059C00000000000000000000000000000000000D7
:1059D00000000000000000000000000000000000C7
:1059E00000000000000000000000000000000000B7
:1059F000000000000000000000000000010203049D
:105A00000607080900000000010203040304060859
:085A10000C101820300000000A
:045A1800E900000899
:045A1C00C1000008BD
:105A20000400002000000000B4590008D459000808
:105A30009459000800000000000000000000000071
:105A40000000000000000000000000000000000056
:105A50000000000000000000000000000000000046
:105A60000000000000000000000000000000000036
:105A70000000000000000000000000000000000026
:105A800000000000430000000000000000000000D3
:105A90000000000000000000000000000000000006
:105AA00000000000430000000000000000000000B3
:105AB00000000000000000000000000000000000E6
:105AC0000000000043000000000000000000000093
