:020000040800F2
:10000000400D0020D500000805180008A7160008BC
:1000100000000000000000000000000000000000E0
:100020000000000000000000000000004F18000861
:1000300000000000000000004D18000851180008E2
:10004000E7000008E7000008E7000008E7000008F4
:10005000E7000008E7000008E7000008E7000008E4
:10006000E700000821030008E7000008E700000897
:10007000E7000008E7000008E7000008E7000008C4
:10008000E7000008E7000008E700000800000000A3
:10009000E7000008E7000008E7000008E7000008A4
:1000A000E7000008E7000008E7000008E700000894
:1000B000E7000008E7000008E7000008E700000884
:1000C0000348854600F08EF800480047211D0008CF
:1000D000400D00200448804704480047FEE7FEE743
:1000E000FEE7FEE7FEE7FEE7C9180008C1000008CA
:1000F00030B50B46014600202022012409E00D46C0
:10010000D5409D4205D31D469540491B2546954047
:1001100040191546521E002DF1DC30BDF0B51FB45C
:100120000646002082B005464024019100901BE065
:10013000019922460F46304600F042F8049A059B8A
:10014000801A994110D310461946224600F028F82B
:10015000361A8F410197224601200021009F00F0AE
:100160001FF838184D4100902046641E0028DFDC3F
:10017000019B00982946324607B0F0BDD2B201E09B
:100180000270401C491EFBD270470022F6E710B5F2
:1001900013460A4604461946FFF7F0FF204610BDF5
:1001A00010B5202A04DB0146203A9140002010BD02
:1001B000914020239C1A0346E3401943904010BD10
:1001C00010B5202A04DB0846203AD040002110BD9B
:1001D0000B46D340D0402024A21A91400843194630
:1001E00010BD0000064C0125064E05E02046E368E0
:1001F00007C82B4398471034B442F7D3FFF764FF86
:10020000C81E0008E81E000810B50146806A426D4D
:1002100050231A4204D0C06C426B0846904710BD70
:10022000416D01225202114341650168CA681205FD
:10023000920F1CD12022125C002A18D10A681207E2
:1002400015D58A6853070122002B09DB4B680C2463
:10025000A3434B60416D130299431143416506E08E
:10026000416D202319434165816D1143816500F083
:10027000D1F810BD10B5806A416D4022114341652F
:10028000816D04221143816500F0DEF810BD10B5C8
:10029000806A00F0CFF810BD38B50446064805491D
:1002A0000068FFF725FF604300E0401E0090002833
:1002B000FBD138BD40420F0014000020F8B50446C1
:1002C000006881688907890F012902D10168C9077F
:1002D00022D18168114A10261140012500290ED132
:1002E0008168294381600120FFF7D6FF00F068FC98
:1002F00007460CE000F064FCC01B0A2807D9606DBB
:1003000030436065A06D2843A0650120F8BD2068DA
:100310000068C043C007EDD10020F8BD1700008081
:1003200010B5024800F09CFA10BD0000F40800204F
:1003300030B5446C1C252C400125A540046C65603B
:10034000046863608368102B036803D099600068B9
:10035000C26030BD9A600068C16030BD7047000067
:10036000F8B506460D464036317C01290DD00121F5
:10037000317401688A68520709D5416D2022114302
:100380004165002030740120F8BD0220F8BD1F4BEC
:100390006A68D80547109A421D4C8A6A2B681AD0A1
:1003A0005B035B0B1A438A622968490305D5A16880
:1003B0000143A1600A20FFF76FFF2868800302D580
:1003C000A0683843A0602868C0031CD5A06801213C
:1003D0000906084316E05B035B0B9A438A622968AF
:1003E000490302D5A1688143A1602868800302D532
:1003F000A068B843A0602868C00304D5A0680121A4
:1004000009068843A06000203074F8BD0110000088
:100410000027014010B500228021044800F0C9FBEC
:1004200001222021024800F0C4FB10BD000800504A
:100430000004005010B501228021024800F0B9FBF1
:1004400010BD00000008005070470068006C704745
:1004500070B5040006D0606D2646002540360028A1
:1004600002D006E0012070BDA5653574204600F07D
:10047000D3F8606DC00603D421688868400705D5AD
:10048000606D1021084360653574EBE7606DFF22F5
:100490000132904302221043606588688207920F00
:1004A0005B48012A02D10A68D2072BD10323626874
:1004B0009B079A4205D05B429A4202D05B009A4267
:1004C00009D10A69920092080A6121680A69636881
:1004D0001A430A610CE00A69920092080A61816875
:1004E0000F229204914381608168626811438160A8
:1004F0002168CA6818239A43CA602168CA68A36839
:100500001A43CA6081680122520691438160816862
:10051000A28E52061143816020688168C90004D40C
:10052000816801221207114381602068C168394A3D
:100530001140C1602069E168022825D000200143F4
:10054000204620300278037B52035B001A4311439C
:10055000226B1143A26992031143E269D203114352
:100560002268D3681943D160616A0A46FF3AC23AE9
:1005700005D0A26A11432268D3681943D16042783A
:100580000121012A02D00BE00420D8E700780028DE
:1005900023D0606D202210436065A06D0843A065E4
:1005A000E06B012820681FD00169C90703D00169E9
:1005B00049084900016120684169C908C9004161D1
:1005C00020684169A26B11434161A565606D800897
:1005D0008000401C6065002070BD2068C268012357
:1005E0001B041A43C260DBE70269FF239B009A43A6
:1005F000026120680269236CA66C1A43636C334362
:100600001A430261206802690A430261D3E70000CD
:10061000002701401902FEFF70B586B0064614217E
:100620006846FFF7B2FD1A49306888422DD1194952
:10063000486B4A1510434863CA6A04200243CA62E1
:10064000C96A002501400591022000900320019015
:1006500069460295104800F0E5F9114C0F486560B5
:10066000A560E5602060802020614000606180001E
:10067000A06120202562E061204600F045F90028B5
:1006800001D0FFF76BFEF464A66206B070BD0000F7
:100690000024014000100240000800500800024001
:1006A000F4080020F8B504464069254640350E465A
:1006B00008280BD02068C068C00709D0606D2021D1
:1006C00008436065002028740120F8BD082700E079
:1006D0000C2700F075FA009011E0701C0FD0002E6E
:1006E00005D000F06DFA0099401AB04207D9606D4C
:1006F000042108436065002028740320F8BD2068A9
:1007000000683842E9D0606D012149020843606504
:100710002068C16809058A0F0C21002A1BD12022FC
:10072000125D002A17D10268120714D58268530798
:100730000122002B08DB43688B434360606D13028A
:1007400098431043606506E0606D202318436065A0
:10075000A06D1043A065A069002801D12068016048
:100760000020F8BD70B5044621680020896849075B
:1007700021D425464035297C01291CD0012129742A
:10078000E169012904D02046FFF798FD002811D126
:10079000616D0A4A1140FF22013211436165002157
:1007A000A165297422681C21116021688A680423CC
:1007B0001A438A6070BD022070BD0000FEF1FFFF89
:1007C000F7B5044600680025806840073DD42646FA
:1007D0004036307C01280AD001273774E0690128AF
:1007E00007D02046FFF76AFD050002D02EE0022068
:1007F000FEBD606D16490840FF2101310843606568
:100800000020A0653074E16C1248C862E16C1248A7
:100810000863E16C1148486321681C200860206867
:1008200041681022114341602068C1683943C160AA
:100830002168E06C4031029B019A00F0ADF820681D
:10084000816804221143816000E002252846FEBD34
:10085000FEF1FFFF090200088F0200087502000880
:10086000F0B4016C0D6801680C68466C1C2304220E
:100870001E401746B7402F420ED067070CD50C68B4
:10088000A40602D40C6894430C60416C19408A4061
:10089000016C4A60016B1AE00227B74002462F4004
:1008A0002032002F17D0A70715D50C68A40605D451
:1008B0000C680A25AC430C6001215171446C022183
:1008C0001C40036CA140596000211171C16A0029CC
:1008D00018D0F0BC08470827B7402F4212D0240791
:1008E00010D50C680E25AC430C60446C01211C40F3
:1008F0000B46A340046C6360C16351710021117108
:10090000416BE4E7F0BC704770B504003BD01F4872
:10091000256814212818FFF7EBFB800060641C4851
:10092000206402202146203148712A681948E36872
:100930000240A06866691843236933431843A369DA
:100940001843E3691843236A1843104328600122BF
:10095000A0689203904210D00D488030836A656C85
:100960001C2215400F26AE40B3438362656C63685A
:100970001540826AAB40134383620020E06301228A
:100980004A71087170BD012070BD0000F8FFFDBF05
:10099000000002400F80FFFFF8B504468C4620306F
:1009A00001790025012909D0012606714179002726
:1009B000012905D0077102252846F8BD0220F8BD9F
:1009C00002214171E763206801684908490001601C
:1009D00061462046FFF7ACFC206B002820680168C8
:1009E00001D00E2205E004229143016020680168D5
:1009F0000A22114301602068016831430160DBE78E
:100A000070B5044600F0DCF80546601C02D00448CE
:100A10000078241800F0D4F8401BA042FAD370BD2F
:100A200008000020FCB500230124A7E027462A4641
:100A30009F403A406FD04D68012D05D0022D03D064
:100A4000112D01D0122D16D185680326AC465D000C
:100A5000AE46AE406546B543AC46CE687546AE4040
:100A600065462E43866046680D79BE43ED06ED0F60
:100A70009D4035434560C6685F000325BD40AE46D6
:100A8000AE4335468E68BE402E43C6604E68022E89
:100A900001D0122E14D1DE08B60036180196366A3F
:100AA0005D07B446EE0E0F25B54000966646AE4390
:100AB000B4460D69009EB54066462E43019D2E62E8
:100AC00006687546AE430D79AD07AD0FBD403543A1
:100AD00005604D68ED0050D52B4D6E6B26436E635F
:100AE0009E082A4DB6007519AC46AD689E07360FB4
:100AF0000F27B740BD4305273F07B84201D1002764
:100B00001AE0234FB84201D1012715E0214FB84226
:100B100002D1022710E030E01F4FB84201D1032775
:100B20000AE01E4FB84201D1042705E01C4FB8422D
:100B300001D1052700E00627B7402F436546AF6087
:100B4000184E35684F689543FF0300D5154335604F
:100B500075684F689543BF0300D515437560B56848
:100B60004F689543FF0200D51543B560F5684F689F
:100B70009543BF0200D51543F5605B1C0A68154616
:100B8000DA4000D052E7FCBD0010024000000140F6
:100B90000004005000080050000C005000100050ED
:100BA000001C0050000401400069084000D00120F2
:100BB0007047002A01D08161704781627047000050
:100BC00001488068704700000800002002488168E2
:100BD00002788918816070470800002010B5084825
:100BE00000240168402211430160204600F00AF809
:100BF000002801D0012401E000F026F8204610BDB5
:100C00000020024070B504460D4D7D202978C000BB
:100C1000FFF76EFA01460B480068FFF769FA00F02B
:100C200061FC002809D1042C07D200222146401E75
:100C300000F020F800206C6070BD012070BD000045
:100C400008000020140000200448416B01221143D9
:100C50004163816B020411438163704700100240BD
:100C6000C106C90E01208840014908607047000094
:100C700000E100E010B500F0C7FD10BDF8B5044676
:100C80000068664D810601D400057DD5634E0027BE
:100C9000403EB06BC00004D4B06B31040843B06375
:100CA00001275F480168C90511D401688215114305
:100CB0000160FFF785FF009005E0FFF781FF0099D5
:100CC000401A642844D856480068C005F5D53168F4
:100CD00003200005626801401040884205D10323CB
:100CE000A0681B051840884208D09003800F032895
:100CF00004D13068800301D50120F8BD28690321A3
:100D00000904084029D00A40824202D02278920683
:100D100006D4A2680A4082421FD0208800051CD554
:100D200028692A6988430121C9040A432A612A697A
:100D30008A432A612861C0050FD5FFF741FF009063
:100D400008E0FFF73DFF0099411A3648814201D97A
:100D50000320F8BD28698005F3D561688803800FFA
:100D6000032805D132680005824301400A433260FE
:100D70002869032261681204114008432861012F89
:100D800005D1B06B390700E001E08843B0632078FB
:100D9000C00705D0E868E168800880000843E86083
:100DA0002078800705D5E8680C218843216908432D
:100DB000E8602078400706D5E86803218902884367
:100DC00061690843E8602078000706D5E8680321D8
:100DD00009038843A1690843E8602088C00506D557
:100DE000E868032109048843E1690843E860207842
:100DF000400606D5E868012189068843616A0843F0
:100E0000E8602078000606D5E86803218904884355
:100E1000216A0843E8600020F8BD0000401002404D
:100E20000070004088130000F8B50E4605007DD024
:100E300053480068C007C00FB0420AD2504801684A
:100E400049084900314301600068C007C00FB04243
:100E500071D128784B4C800705D5E068F021884394
:100E6000A9680843E0602878C00752D06868022863
:100E700017D0032818D02168012818D08905002927
:100E800059DAE168890889000143E160FFF798FEBB
:100E900069680746022912D003291CD0012926D0EF
:100EA00033E021688903EAE721688901E7E7490718
:100EB000E5E7FFF785FEC11B3348814223D8E06890
:100EC0000007800F0228F4D123E0FFF779FEC11B51
:100ED0002D48814217D8E0680007800F0328F4D11D
:100EE00017E0FFF76DFEC11B274881420BD8E06871
:100EF0000007800F0128F4D10BE0FFF761FEC11B52
:100F00002148814201D90320F8BDE0680007800F25
:100F1000F3D11B480168C907C90FB1420DD9016857
:100F20004908490031430160006800E003E0C00760
:100F3000C00FB04201D00120F8BD2878400706D587
:100F4000E068072109028843E9680843E0602878DF
:100F5000000707D5E0680721C90288432969C9004D
:100F60000843E06000F036F8E168084A0906090F16
:100F7000515CC840064908600020FFF743FEF8BDF9
:100F8000002002400010024088130000A41E000848
:100F900014000020044805490068C968044A49054E
:100FA000490F515CC84070471400002000100240F7
:100FB000BD1E0008044805490068C968044A890440
:100FC000490F515CC84070471400002000100240D7
:100FD000BD1E000810B5184AD1680C20084004282E
:100FE0000BD0082810D00C2810D050680004410FF6
:100FF000491C0120C003884010BD1068C00601D5FF
:101000000E4810BD0E4810BD0E4810BD88020E4B94
:10101000000F185C0902890FD368491CDB0301D556
:10102000084A05E01268D20601D5044A00E0044AE5
:101030005043FFF75DF810BD0010024000093D006D
:101040000024F40000127A00B41E0008FEB505006A
:101050007ED0F94CE7680C20E668074001200004C8
:1010600006402878C00747D0082F05D00C2F0AD19A
:1010700001200004864206D1206880033CD56868C0
:101080000028E5D038E0012069680004814203D1DE
:1010900021680143216011E0052301221B04920411
:1010A0009942216802D111432160F1E78143216017
:1010B0002168014000912068904320606868002802
:1010C0000DD0FFF77DFD009005E0FFF779FD009959
:1010D000401A64287ED820688003F6D50CE0FFF71C
:1010E0006FFD009005E0FFF76BFD0099401A642842
:1010F000F0D820688003F6D4287880075CD5E868AB
:10110000810604D5226820210A43226088430923EE
:10111000042F0DD00C2F01D1002E09D000283BD078
:101120002168994301432160FFF74AFD064627E005
:101130002168490701D500288AD061681F22120260
:1011400091432A691202114361602168994300E0CA
:10115000C3E101432160FFF73DFFE16809060A0F83
:10116000B649895CC840B64908600020FFF74AFDCF
:10117000002873D120E0FFF723FD801B0228A9D8A7
:1011800020684007F7D560681F2109028843296954
:101190000902084360600FE02068400840002060BA
:1011A000FFF70EFD064604E0FFF70AFD801B02284C
:1011B00090D820684007F7D42878C00660D5002F63
:1011C0000DD0E86900284AD02068FF21013108438A
:1011D000206000E0F8E0FFF7F3FC06462CE0206812
:1011E000800502D5E8690028A6D060680721490378
:1011F0008843696A084360606068298C0002000ABD
:10120000090608436060686A410B491C0120C0035D
:101210008840E16809060A0F8849895CC840884906
:1012200008600020FFF7EEFC002817D128E0FFF748
:10123000C7FC801B0228A2D820688005F7D560680B
:10124000072149038843696A084360606068298C04
:101250000002000A09060843606011E023E12168EA
:10126000FF20013081432160FFF7AAFC064604E01D
:10127000FFF7A6FC801B02289AD820688005F7D4C7
:101280002878704E000724D568690028306910D08E
:10129000012108433061FFF793FC009005E0FFF760
:1012A0008FFC0099401A0228C5D830698007F6D50E
:1012B0000FE0400840003061FFF782FC009005E03D
:1012C000FFF77EFC0099401A02287DD8306980071C
:1012D000F6D42878400764D500200290A06BC000A7
:1012E00006D4A06B012109070843A06301200290E6
:1012F00055480168C90511D4016882151143016080
:10130000FFF75EFC009005E0FFF75AFC0099401AD9
:10131000642859D84C480068C005F5D5FF20AA6854
:101320000130824203D131690143316111E0012171
:101330008902002A07D005231B029A4203D1326991
:101340000A433261EFE73269824332613069884390
:101350003061A86800280ED0FFF732FC009006E04C
:10136000FFF72EFC0099411A384881422CD8306989
:101370008005F5D50DE0FFF723FC009006E0FFF7B0
:101380001FFC0099411A314881421DD830698005FF
:10139000F5D40298012804D1A06B012109078843E4
:1013A000A0632878800630D52948A969431400290C
:1013B00018D0A26801210A43A260626B0A436263EB
:1013C000016A1943016200E06CE0FFF7F9FB064691
:1013D00004E0FFF7F5FB801B022863D8A0688007B4
:1013E000F7D512E0A16849084900A160016A994354
:1013F0000162FFF7E5FB064604E0FFF7E1FB801B17
:1014000002284FD8A0688007F7D4A86A002866D0C1
:101410000C2F4DD0012636060228206805D0B04397
:101420002060FFF7CDFB05463EE0B0432060FFF7AC
:10143000C7FB074613E0000000100240A41E00088E
:10144000140000204010024000700040881300008B
:1014500000000140FFF7B4FBC01B022822D820681F
:101460008001F7D4296BE86AE2680843696BFD23C1
:101470001B049A4311430843E06020683043206016
:10148000FFF79EFB054604E0FFF79AFB401B02288E
:1014900008D820688001F7D521E0FFF791FB401BB9
:1014A000022801D90320FEBD20688001F5D416E092
:1014B0000128F8D0E06801210904EA6A014091425C
:1014C0000BD10F2189042A6B0140914205D10321E0
:1014D00089050840696B884201D00120FEBD0020CB
:1014E000FEBD0000094910B5401E884201D9012007
:1014F00010BD074C60610321081F00F085F9002032
:10150000A06107202061002010BD0000FFFFFF0048
:1015100000E000E010B5040003D0606F002802D0A6
:1015200007E0012010BD002170200155204600F089
:1015300027F8242060672068016849084900016095
:10154000204600F081FA0128ECD0606A002802D021
:10155000204600F0E3F9206841680922D202914355
:101560004160206881682A22914381602068016877
:10157000012211430160204600F036FA10BD000040
:1015800010B586B0044614216846FEF7FEFD1149E9
:10159000206888421BD11048816B012252041143FC
:1015A0008163C16A01221143C162C06A6946104069
:1015B00005900C2000900220019000200290032052
:1015C00003900420049005200007FFF72BFA06B0D3
:1015D00010BD00000044004000100240FFB504466A
:1015E000406F83B017460D4620285AD1002D0AD0EF
:1015F000002F08D0A168C001814207D120690028CE
:1016000004D1E80702D0012007B0F0BD20466030C9
:101610000290007C012844D002980121017400202E
:10162000E06721206067FFF7CBFA2646403601903D
:10163000378277820120A1680003814202D12069AC
:10164000002802D02F46002511E000270FE00022DD
:101650008021204600F016FB002815D1002F15D060
:1016600038787F1C21688862708A401E7082708A78
:10167000019B002806980090E9D1002240212046D5
:1016800000F000FB002806D00320BDE72888AD1C31
:10169000C005C00DE6E720206067029900200874AD
:1016A000B2E70220B0E7FEE77CB5002114480091C4
:1016B000124A01910260C163520542600424012371
:1016C00084630822036182600246C1602032137085
:1016D000FF255170C23545628162137301638161D8
:1016E00041634461C161FEF7B3FE06480090A00269
:1016F000019069460248FEF733FE7CBD002401409C
:10170000180000200008002CF0B587B014216846AE
:10171000FEF73BFD2B48C26A04210A43C262C26A3B
:101720000A400592C16A80252943C162C16A2940E5
:101730000591C16A01242143C162C16A214005911A
:10174000C16A02263143C162C06A0022304005905E
:10175000052020210007FFF72CFA95210022C9005F
:101760001948FFF726FA60030090184800270190F7
:10177000694602971648FFF755F92020694691C13E
:101780000520694600070397FFF74CF98520C00044
:10179000694691C169460C480397FFF743F90297E0
:1017A00069460948039700950194FFF73BF9A002A9
:1017B000009005206946019702960007FFF732F96D
:1017C00007B0F0BD001002400004005000002110DE
:1017D0000008005010B50A4808490160E12149029B
:1017E000416000218160C16001618161C1610C22A1
:1017F000016242614162FFF78DFE10BD004400406E
:1018000074000020704700008307FF22DB0E9A401F
:101810008907090E994000280BDA0007000F0838E5
:10182000830808489B001B18D86990430843D86177
:101830007047830804489B001B18186890430843AE
:101840001860704700ED00E000E400E0704770476A
:1018500010B5FFF7BBF910BD10B59EB03821684632
:10186000FEF793FC142118A8FEF78FFC28210EA880
:10187000FEF78BFC134801680322D2029143C21485
:101880008918016010200090012007900520002495
:101890004003099008940A946846FFF7D7FB0F208D
:1018A000189019941A941B9400211C9418A8FFF7FF
:1018B000BBFA02200E9012940EA8FFF7DFF91EB0BB
:1018C00010BD0000007000401048016882151143EF
:1018D0000160C1680E4A1140C16001680D4A1140A3
:1018E0000160816849084900816001680122920411
:1018F00091430160C168FD2212049143C16000213F
:1019000001610549C0038860704700000010024073
:101910000C40FF88F6FFF6FE00ED00E010B5818C6C
:10192000C90707D001684A6801235B049A43836AA8
:101930001A434A60818C890707D501684A680123E8
:101940001B049A43C36A1A434A60818C490707D52E
:1019500001684A6801239B049A43036B1A434A6057
:10196000818C090707D501684A680123DB039A4384
:10197000436B1A434A60818CC90607D50268916897
:1019800001231B039943836B19439160818C890662
:1019900007D501688A6801235B039A43C36B1A4326
:1019A0008A60818C490612D503685A6801210905AD
:1019B000046C8A4322435A60026C8A4207D102684F
:1019C000516803235B059943436C19435160818C33
:1019D000090607D501684A680123DB04806C9A4335
:1019E00002434A6010BD0000F8B500260446C667F1
:1019F000FFF7E6F8054620680068124F000709D592
:101A000001212B46002249052046009700F03AF9B3
:101A100000280DD12068006840070BD501212B4616
:101A2000002289052046009700F02CF9002801D0FB
:101A30000320F8BD20206067A06760342674002072
:101A4000F8BD0000FFFFFF01F8B504462669A26853
:101A5000E76932436669102000253E43236832431C
:101A60007B491E687B4F3E4016431E6022685368C8
:101A700003263603B343E668334353602368A26901
:101A80008B4201D0266A32439E680B273F02BE4339
:101A900016439E60704E2368704AB3420CD1D268E0
:101AA0009207920F06D0012A2ED0022A2AD0032AAA
:101AB0002DD12BE001202AE0694EB3420AD1D26831
:101AC0000C2632401CD0042A1ED0082A1AD00C2A18
:101AD0001DD11BE0634EB34212D0634EB3420FD010
:101AE0008B4214D1D66803229202164008D00122FC
:101AF0009202B61A08D0B61A04D0B21A07D105E07D
:101B0000002004E0022002E0042000E00820534A04
:101B10000126403A554FF6038B4230D1002806D0BB
:101B2000022807D004280CD0082819D116E0FFF7A6
:101B300031FA08E01068C00601D5384605E04C4887
:101B400003E0FFF747FA002873D06268510051188C
:101B5000814205D81103814202D303E03046F4E705
:101B6000012566E0010E0602500800233018594195
:101B7000FEF7D4FA03210902411A3E4A55E0E16911
:101B8000B14232D1030000F0AEF809070A0D062574
:101B90000606062B0600E3E7FFF7FCF91CE0FFF75B
:101BA00009FA19E010686168C00602D54808324A8F
:101BB00001E0324A48088018FEF79AFA80B20146DE
:101BC0002F4A10399142CBD8511C01400007400FD9
:101BD00008432CE0FFF7FEF9616840004A08EAE795
:101BE0006168012248081204E5E7030000F07BF871
:101BF00009070A0D06260606062C0600B0E7FFF7C1
:101C0000C9F91DE0FFF7D6F91AE010686168C0064F
:101C100002D54808C01902E015484A081018FEF716
:101C200067FA80B20146164A1039914298D8216865
:101C3000C8600020206660662846F8BDFFF7CAF934
:101C400061684A088018EAE7616848088019E6E791
:101C500000480040F369FFEF0038014040100240A7
:101C600000440040004C00400050004000093D008E
:101C70000024F400FFFC0F0000127A000048E80185
:101C8000EFFF0000FFB581B017460E4604460A9DDF
:101C900009E0681C07D0FEF793FF0499401AA84298
:101CA0000CD8002D0AD02068C1693046884318D06E
:101CB0000020B842EDD0002005B0F0BD20680168DA
:101CC000FF22A132914301602068816849084900E0
:101CD000816020206067A0670020603420740320AA
:101CE000EAE70120E5E730B47446641E2578641CF9
:101CF000AB4200D21D46635D5B00E31830BC184761
:101D000002E008C8121F08C1002AFAD170477047C4
:101D1000002001E001C1121F002AFBD17047000022
:101D200008B5FEF75BFFFFF797FDFFF7EDFC58489E
:101D3000016B012211430163006B104000220090EF
:101D400011460920FEF796FF0920FEF789FFFFF7ED
:101D5000ABFCFFF73FFD4F49012208469202DC38F9
:101D6000FEF72EFD4C4C05252D074A48DC38FEF7C2
:101D7000F9FC48480A21DC38FEF794FC002849D1D8
:101D80004448DC38FEF761FB444E01467060414830
:101D9000642306228038FFF721FC70680146401E4C
:101DA000F92807D2002208212046FEF702FF01226F
:101DB000910217E00846FB38F92808D201210022D9
:101DC00089022046FEF7F5FE012220210AE0FF39B4
:101DD000F639C72909D2002220212046FEF7E9FE64
:101DE000012280212046FEF7E4FE2D49706840184C
:101DF000FF212C31884208D2002280212046FEF7A4
:101E0000D8FE01220821204602E000222021284697
:101E1000FEF7CFFE3220FEF7F3FD012189022846AE
:101E2000FEF7C2FE002803D01C484168002906D0F6
:101E30001A480178002928D00021417095E70178DF
:101E400041709526F600FF27F53719E0012231464B
:101E50002046FEF7AEFE002220212846FEF7A9FE0E
:101E60003846FEF7CDFD002231462046FEF7A1FEA2
:101E7000012220212846FEF79CFE3846FEF7C0FDD1
:101E8000064840780028D9D0E0E70121D5E70000D6
:101E900000100240F4000020000400500000002068
:101EA00043FDFFFF000000000000000001020304EA
:101EB00006070809030406080C101820300000006B
:101EC0000001020304000000E81E000800000020DA
:101ED00018000000001D0008001F00081800002066
:101EE000280D0000101D0008010000000000000087
:101EF00001000000040000000000000000002000BD
:04000005080000C12E
:00000001FF
